:100000000C94E9230C941A240C941A240C941A24AA
:100010000C941A240C941A240C941A240C941A2468
:100020000C941A240C941A240C941A240C941A2458
:100030000C941A240C948CD20C941A240C941A2428
:100040000C941A240C941DAB0C941A240C941A24AE
:100050000C941A240C941A240C9419DE0D94CA33AF
:100060000C941A240C94DB430C94D1430C941A2462
:100070000C941A240C941A240C941A240C941A2408
:100080000C941A240C941A240C941A240C941A24F8
:100090000C941A240C941A240C941A240C941A24E8
:1000A0000C941A240C941A240C941A240C941A24D8
:1000B0000C941A240C941A240C941A240C941A24C8
:1000C0000C941A240C941A240C941A240C941A24B8
:1000D0000C941A240C941A240C941A240C941A24A8
:1000E0000C941A241B587656AF565758AF56AF5635
:1000F000AF56AF56AF56AF56AF56AF56AF56AF56D8
:10010000AF56AF56AF56AF56AF56AF56AF56AF56C7
:10011000AF56AF56AF56AF56AF56AF56AF56AF56B7
:100120005158AF56AF56AF56AF56AF56AF56AF5603
:10013000AF562A58AF56AF56AF56AF56AF56AF561A
:10014000AF56AF56AF56AF566E58AC56F4F8D4F81B
:10015000DAF8D7F8DDF8E0F8E3F8EFF8E6F801F9B7
:10016000E9F8ECF844022C010A02D8027E0166028A
:10017000BC024E02F2014C026802B6021403700285
:10018000660220011A030C027A0100026001C60215
:100190005802FE022601A8015601BC01B4027602F3
:1001A00022016A01FE028C010202A8029E01920154
:1001B0003A016E028A02D4025C02D001E2025001CE
:1001C000580120021002E002D402EC0106027A0279
:1001D000A0019C020803E401DE019A01CE02B201F3
:1001E000A6012C0216039E02DC01C6019A019A02A6
:1001F0002802D801084AD73B3BCE016E84BCBFFD24
:10020000C12F3D6C74319ABD56833DDA3D00C77FE6
:1002100011BED9E4BB4C3E916BAAAABE000000807F
:100220003F05A84CCDB2D44EB93836A9020C50B90E
:10023000918688083CA6AAAA2ABE000000803F003A
:100240000D947A280D947C2A0D94452D0D94682ADE
:100250000D948D0E0D949B1A0D94C7260D942D09A7
:100260000D94AD100C94EFF80D94E3000C94E9F0AC
:100270000D946F080D949A310D94652D0C94DAF855
:100280000D94F12C0C94507A0C94E0F80D9458369F
:100290000C94BE8D0D94A9360C948E7D0D94272F51
:1002A0000D94BD310D94320A0C94927D0D946F2AF9
:1002B0000D94C1310C9464890D94560A0C9468898C
:1002C0000D945E2A0D943C0E0D94AE080C94575874
:1002D0000D9424080D947F2A0C942D6D0C94DAED66
:1002E0000C94907D0D94C7080C945B6D0D943E0AA0
:1002F0000D94712D0D94572A0C94C86D0D943127CF
:100300000C94876D0C9476560D947E0E0C94ADF083
:100310000D944A0A0C94DF6D0D94832A0C94446D5D
:100320000C94C2D10D94AB310C94D1F00D94971A6A
:100330000C94F4F80D945C330D944D2D0D94A8316C
:100340000D94C5320C941BF40C94D7F00D94FD322F
:100350000D946B2A0C9417F10C9493F50D94552D74
:100360000C94BF890D94F5320D9460090C94166DB0
:100370000C94446E0C94E6750D94722A0D94991A9F
:100380000D9448090C94C39C0D94680A0D94343361
:100390000C94E5580C9408F10D9411090D94512D0D
:1003A0000D94B3310D9454090D94691C0C94E9F823
:1003B0000D9452330C94B79C0D942A330D94E33270
:1003C0000D94BE360D943D080D94D9320C9415F25F
:1003D0000C94C6890C9434F00D94D5310C94EB6DCB
:1003E0000D94EF3C0D949C270D945C0A0C94B96D10
:1003F0000C94C7730C942AF00C94DDF80D943D0D09
:100400000D945A2A0D94862A0C9430770D94D93184
:100410000D94752D0D94E7260D94C4280D949D1A06
:100420000D94CB310C94D4F80D94F5100C946AD142
:100430000C94B7F00C94D96D0D94D22C0C94D76D0C
:100440000D94C7310C9425F00D94FE080D94950879
:100450000D9448330C94DB870D9407330D94AD361F
:100460000C94DB960C947FAA0D94EC080C94889A5B
:100470000C9466890C9410880C94E6F80D94440A48
:100480000C9422F30C94667B0D94A5260C94D077E3
:100490000C94516E0D944A190D94C1270D9479272F
:1004A0000C946E580D94500A0C9401F90C942A582F
:1004B0000D94642A0C9451580D94AF310C948C7D9A
:1004C0000C946C6D0D94380A0D94420F0D94E8282D
:1004D0000D94E6270C9411F10C94D6490D949E319D
:1004E0000D9455280C94376E0C94A06D0D94792AB8
:1004F0000D949C450D94DD310C94E56D0C94AF5634
:100500000D9430090C946E890C94B16F0C94E3F047
:100510000C94FE870D94A4310C94D7F80D94592DAA
:100520000D9482080D94C2360C9429F20C942FF08D
:100530000C94F9750D943E330D94CA320D941B330F
:100540000C94EE750D94DA080D946E0A0C94E3F891
:100550000D94892A0C944F770C9447590D943C09BB
:100560000D9456080C9407880D94752A0D940B2849
:100570000C9406560D946D2D0D9456270C9442EE56
:100580000C94D5ED0D945D2D0C94BE580D94612AFC
:100590000C94EA8A0C94C7750C94336E0D94ED326A
:1005A0000D9446370C94EED10D94E2310D947637CC
:1005B0000D940C270C94FF6C0C94C6970C94D49D4E
:1005C0000D94CF310D94B9310D94620A0C9494D1ED
:1005D0000D94612D0D94951A0D94692D0C9474D978
:1005E0000C945E8C0C9403560C94B2F00C94AC56A4
:1005F0000C9495990C94ECF80D94C6360D948E2AB3
:100600000D9473090C946E770C94E9960D94932CC9
:100610000D94CF320C94DDF00C9402560C94FE75C0
:100620000C941B580D942A090D9430280D94113305
:100630000C94EF770D949F284E414E494E495459E2
:10064000494E46CDCCCC3D0AD7233C17B7D138779D
:10065000CC2B329595E6241FB14F0A0000204100B3
:1006600000C84200401C4620BCBE4CCA1B0E5AAEFD
:10067000C59D7400407A10F35A00A0724E1809000C
:1006800010A5D4E80000E87648170000E40B5402F7
:100690000000CA9A3B000000E1F505000080969832
:1006A00000000040420F000000A086010000001082
:1006B0002700000000E803000000006400000000C4
:1006C000000A00000000000100000000002C76D8A5
:1006D00088DC674F0823DFC1DFAE59E1B1B796E58B
:1006E000E3E453C63AE651997696E8E6C28426EBEF
:1006F000898C9B62ED407C6FFCEFBC9C9F40F2BA02
:10070000A56FA5F490055A2AF75C936B6CF9676D99
:10071000C11BFCE0E40D47FEF520E6B500D0ED90EE
:100720002E0300943577050080841E080000204EBB
:100730000A000000C80C333333330F986E12831154
:1007400041EF8D2114893BE65516CFFEE6DB18D12B
:10075000844B381BF77C1D901DA4BBE424203284FD
:10076000725E228100C9F124ECA1E53D27434F4D83
:100770004D554E49434154494F4E004452595255EC
:100780004E004552524F525300494E464F0045438A
:10079000484F00446F726D696E646F2E2E2E004DAF
:1007A00065736820706F696E74206F7574206F6652
:1007B0002072616E67650A00436C6971756520700F
:1007C000617261207265746F6D61720053656D2096
:1007D0006D6F76696D656E746F00456E6420666935
:1007E0006C65206C6973740A00426567696E2066E7
:1007F000696C65206C6973740A00286E6F206669E5
:100800006C65290043757272656E742066696C654B
:100810003A20005344207072696E74696E672062DA
:1008200079746520004E6F74205344207072696E95
:1008300074696E670A0044656C6574696F6E206642
:1008400061696C65642C2046696C653A20004669D4
:100850006C652064656C657465643A00256979206F
:10086000256964202569682025696D202569730044
:100870005072696E742074696D653A2000496E7615
:10088000616C69642050696E204D6F64650A005286
:100890006573667269616E646F2E2E2E00417175EC
:1008A0006563656E646F2E2E2E0045202553006F04
:1008B00066660044454255473A004D313132205377
:1008C000687574646F776E004D3131332053004189
:1008D000472D5A39204F46462E004348414D424548
:1008E000525F54454D504552415455524500424186
:1008F00042595354455050494E47004152435300CA
:100900004D4F54494F4E5F4D4F4445530054484559
:10091000524D414C5F50524F54454354494F4E0045
:100920004C4F4E475F46494C454E414D4500415561
:10093000544F5245504F52545F53445F53544154A7
:100940005553005344434152440050524F4D50546C
:100950005F535550504F525400454D455247454EF8
:1009600043595F50415253455200434153455F4CF8
:10097000494748545F4252494748544E45535300F3
:10098000544F47474C455F4C494748545300534FD9
:100990004654574152455F504F57455200425549C2
:1009A0004C445F50455243454E54004C4556454CCF
:1009B000494E475F44415441005A5F50524F4245AF
:1009C0000052554E4F5554004155544F4C455645D5
:1009D0004C005052494E545F4A4F420050524F47CC
:1009E00052455353004155544F5245504F52545F56
:1009F00054454D5000564F4C554D455452494300B7
:100A000042494E4152595F46494C455F5452414E0E
:100A1000534645520053455249414C5F584F4E5F33
:100A2000584F4646004649524D574152455F4E4148
:100A30004D453A4D61726C696E20322E302E362053
:100A40002841756720313720323032302031393A31
:100A500035353A34312920534F555243455F434F82
:100A600044455F55524C3A68747470733A2F2F673F
:100A700069746875622E636F6D2F4D61726C696E5B
:100A80004669726D776172652F4D61726C696E2077
:100A900050524F544F434F4C5F56455253494F4E5F
:100AA0003A312E30204D414348494E455F5459500C
:100AB000453A41472D5A39204558545255444552DC
:100AC0005F434F554E543A3120555549443A63657A
:100AD0006465326132662D343161322D34373438F9
:100AE0002D396231322D6335356336326633363710
:100AF00066660A002F2F20004D31343520533C69A3
:100B00006E6465783E206F7574206F662072616E2A
:100B100067652028302D31290A00416363656C65C3
:100B2000726174696F6E3A2050003F4A206F75748D
:100B3000206F662072616E67652028302E3031206C
:100B4000746F20302E33290A0020204D61783A201E
:100B50000020204D696E3A2000536F667420656E48
:100B60006473746F70733A200046523A0020466CEA
:100B70006F773A200050726F74656374656420501B
:100B8000696E0A0020643A0020693A0020703A0039
:100B9000496E76616C6964206578747275646572FB
:100BA0000A006469730043290A0061626C6564206D
:100BB000286D696E2074656D702000436F6C642031
:100BC000657874727564657320617265200046698A
:100BD0006C616D656E742072756E6F7574206469DA
:100BE0007374616E636520286D6D293A2000466933
:100BF0006C616D656E742072756E6F757420004D3A
:100C000034323120696E636F727265637420706173
:100C100072616D657465722075736167650A004164
:100C20006C74657261C3A7C3A36F2061706C696344
:100C3000616461004572723A20546F6F2066617280
:100C40002100546F6F206661722066726F6D207292
:100C500065666572656E636520706F696E740A0003
:100C6000454550524F4D204F4B0A00446F6E652052
:100C70007072696E74696E672066696C650A004DF2
:100C80003737004D3331008E07890782077B076DA8
:100C9000074572726F722077726974696E6720748B
:100CA0006F20454550524F4D210A004D34313000E0
:100CB0004D313132004D313038005041524F552EB8
:100CC00020005072696E7465722073746F70706565
:100CD000642064756520746F206572726F72732E64
:100CE0002046697820746865206572726F72206191
:100CF0006E6420757365204D39393920746F207208
:100D00006573746172742E202854656D706572610C
:100D1000747572652069732072657365742E205333
:100D200065742069742061667465722072657374DD
:100D3000617274696E67290A004E6F2043686563AB
:100D40006B73756D2077697468206C696E65206EB1
:100D5000756D6265722C204C617374204C696E65F0
:100D60003A2000636865636B73756D206D69736D00
:100D7000617463682C204C617374204C696E653A11
:100D800020004C696E65204E756D62657220697336
:100D9000206E6F74204C617374204C696E65204E18
:100DA000756D6265722B312C204C617374204C6917
:100DB0006E653A20004D3131300053442072656138
:100DC00064206572726F720A002121204B494C4CDD
:100DD00020636175736564206279204B494C4C2017
:100DE000627574746F6E2F70696E0A002121204B3A
:100DF000494C4C2063617573656420627920746F7F
:100E00006F206D75636820696E6163746976652013
:100E100074696D65202D2063757272656E74206330
:100E20006F6D6D616E643A2000627573793A20705F
:100E3000617573656420666F7220696E7075740ADF
:100E400000627573793A2070617573656420666F0E
:100E50007220757365720A00627573793A20707238
:100E60006F63657373696E670A0043617274C3A32D
:100E70006F2072656D6F7669646F0043617274C331
:100E8000A36F20696E73657269646F004D363030F0
:100E9000004661766F7220726573657461720049F5
:100EA0004D50524553534F5241205041524F5500DF
:100EB00025533A2025530050415241444120444596
:100EC00020454D455247C38A4E43494100507269FF
:100ED0006E7465722068616C7465642E206B696C39
:100EE0006C28292063616C6C6564210A0065636865
:100EF0006F3A004572726F723A0042696C696E65B2
:100F00006172204C6576656C696E67204772696412
:100F10003A0A003C3D38033637260E2E303E121377
:100F20001A1C1824221E2827160A06430809060838
:100F30004400014F46460A004661646520486569E1
:100F40006768742000426564204C6576656C696E44
:100F50006720004661696C656420746F20656E616E
:100F6000626C6520426564204C6576656C696E67CD
:100F70000A00496E76616C6964206D6573682E0A9B
:100F800000473120583135342059313534205A3218
:100F900031302046383030300A473120593320462E
:100FA0003630303000536F6E64616E646F20706F46
:100FB0006E746F0025532025692F25690050726FCC
:100FC00062696E67206D65736820706F696E74204A
:100FD00000202844525952554E29004732392041A9
:100FE00075746F20426564204C6576656C696E6728
:100FF000003F20284C2C522C462C4229206F75741F
:10100000206F6620626F756E64732E0A003F28564B
:10101000296572626F7365206C6576656C20696DF9
:10102000706C61757369626C652028302D34292ECF
:101030000A00426164205A2076616C75650A004E90
:101040006F2062696C696E65617220677269640AFB
:10105000004572723A207574663820666F6E74208F
:101060006E6F7420696E697469616C697A65642E4B
:1010700000000C0F00FE07022603BC01FFFE0AFE63
:1010800008FE05080806000040F0C8888898781017
:10109000050808060000C0F88888888888F80505D3
:1010A000050600012030F830200508080600002061
:1010B00070F820202020E00509090600FF2070A814
:1010C000A8B888887020050606060001E08CEA8C26
:1010D0008A0A0509090600FFF8A88888888888A870
:1010E000F8050A0A0600FE205050505088A8A8882B
:1010F0007003030306000340A040FFFFFFFFFFFF54
:10110000FFFFFFFFFFFFFFFFFFFFFFFFFFFFFFFFEF
:101110000000000605FF01070706020080808080AE
:10112000800080030303060105A0A0A005060606B3
:10113000000050F85050F8500509090600FF2070D3
:10114000A8A07028A87020050707060000C8C810CE
:101150002040989805070706000040A0A040A890EE
:10116000680103030602058080800309090601FF68
:101170002040408080804040200309090601FF8014
:10118000404020202040408005070706000020A89E
:10119000702070A8200505050600012020F82020F9
:1011A0000203030601FFC04080050101060003F8A9
:1011B000020202060100C0C0050707060000081071
:1011C0001020404080050707060000708898A8C8D6
:1011D000887003070706010040C040404040E0051A
:1011E0000707060000708808102040F8050707066A
:1011F0000000F80810300888700507070600001086
:10120000305090F81010050707060000F880F0082D
:10121000088870050707060000304080F088887055
:10122000050707060000F808101020202005070712
:10123000060000708888708888700507070600001F
:1012400070888878081060020505060100C0C0009B
:10125000C0C00206060601FFC0C000C040800305F2
:10126000050601012040804020050303060002F826
:1012700000F80305050601018040204080050707AE
:1012800006000070881020200020050707060000D7
:101290007088B8A8B88070050707060000708888B5
:1012A000F8888888050707060000F0484870484815
:1012B000F0050707060000708880808088700507A9
:1012C00007060000F04848484848F00507070600B0
:1012D00000F88080F08080F8050707060000F8809D
:1012E00080F0808080050707060000708880809865
:1012F0008870050707060000888888F888888803B2
:101300000707060100E04040404040E005070706AF
:1013100000003810101010906005070706000088C4
:1013200090A0C0A0908805070706000080808080FC
:101330008080F805070706000088D8A88888888874
:101340000507070600008888C8A898888805070749
:1013500006000070888888888870050707060000E6
:10136000F08888F080808005070706000070888874
:1013700088A89068050707060000F08888F0A0900C
:1013800088050707060000708880700888700507C8
:1013900007060000F820202020202005070706006F
:1013A0000088888888888870050707060000888874
:1013B000888850502005070706000088888888A87C
:1013C000A850050707060000888850205088880527
:1013D0000707060000888850202020200507070600
:1013E0000000F80810204080F80309090601FFE01A
:1013F00080808080808080E00507070600008040B4
:1014000040201010080309090601FFE020202020D9
:10141000202020E005030306000520508805010177
:101420000600FEF8030303060105804020050505BC
:10143000060000700878887805070706000080809D
:10144000F0888888F00505050600007080808870A7
:1014500005070706000008087888888878050505CC
:101460000600007088F0807005070706000030480D
:1014700040E04040400507070600FE7088888878F5
:1014800008700507070600008080F08888888803B8
:1014900007070601004000C0404040E0040909067B
:1014A00001FE1000301010101090600507070600B4
:1014B0000080808890E09088030707060100C04004
:1014C00040404040E0050505060000D0A8A8A8A8B7
:1014D000050505060000B0C88888880505050600D2
:1014E0000070888888700507070600FEF0888888E5
:1014F000F080800507070600FE788888887808084D
:10150000050505060000B0C88080800505050600B9
:101510000078807008F00507070600002020F820FA
:1015200020201805050506000088888898680505AC
:1015300005060000888888502005050506000088FB
:1015400088A8A85005050506000088502050880589
:1015500007070600FE88888850204080050505069C
:101560000000F8102040F80309090601FF20404060
:101570004080404040200109090602FF80808080B1
:1015800080808080800309090601FF804040402060
:101590004040408005030306000248A890FFFFFF7B
:1015A000FFFFFFFFFFFFFFFFFFFFFFFFFFFFFFFF4B
:1015B000FFFFFFFFFFFFFFFFFFFFFFFFFFFF000039
:1015C000000605FF0107070602008000808080807A
:1015D000800507070600FF2070A8A0A87020050757
:1015E00007060000304840E04048B0050505060009
:1015F00000A8508850A80507070600008850F8206A
:10160000F82020010707060200808080008080808B
:1016100004080806010070806090906010E00301EB
:1016200001060107A00607070600007884B4A4B4E9
:10163000847803050506010460A06000E005050547
:101640000600002850A05028050303060001F808F2
:1016500008030101060103E006070706000078847D
:10166000B4A4A48478050101060007F80404040664
:101670000105609090600507070600002020F82013
:101680002000F803050506010440A02040E0030502
:1016900005060104C0204020C00303030601052005
:1016A00040800507070600FE88888898E880800546
:1016B000080806000078E8E8E868282828020202FE
:1016C000060203C0C00302020601FE20C003050596
:1016D00006010440C04040E003050506010540A0A6
:1016E0004000E0050505060000A0502850A0050AAE
:1016F0000A06000040C048506050B0507810050AFB
:101700000A06000040C048506050A8081038050A7A
:101710000A060000C0204830E050B050781005079D
:101720000706000020002020408870050A0A0600F5
:1017300000402000708888F8888888050A0A06001A
:1017400000102000708888F8888888050A0A06003A
:1017500000205000708888F8888888050A0A0600EA
:101760000068B000708888F8888888050909060034
:10177000005000708888F8888888050A0A060000EA
:10178000205020708888F8888888050707060000A0
:1017900078A0A0F0A0A0B80509090600FE70888016
:1017A000808088701060050A0A060000402000F85A
:1017B0008080F08080F8050A0A060000102000F8FA
:1017C0008080F08080F8050A0A060000205000F8AA
:1017D0008080F08080F80509090600005000F8803C
:1017E00080F08080F8030A0A060100804000E04093
:1017F00040404040E0030A0A060100204000E0406B
:1018000040404040E0030A0A06010040A000E040DA
:1018100040404040E0030909060100A000E04040CC
:10182000404040E0050707060000704848E8484887
:1018300070050A0A06000068B0008888C8A8988861
:1018400088050A0A06000040200070888888888879
:1018500070050A0A060000102000708888888888B1
:1018600070050A0A06000020500070888888888861
:1018700070050A0A06000068B000708888888888A9
:1018800070050909060000500070888888888870F3
:101890000505050600018850205088050909060045
:1018A000FF087098A8A8A8C87080050A0A0600005A
:1018B00040200088888888888870050A0A06000009
:1018C00010200088888888888870050A0A06000029
:1018D00020500088888888888870050909060000DB
:1018E000500088888888888870050A0A06000010D9
:1018F000200088885020202020040707060100804F
:10190000E0909090E080050707060000708890A0A6
:101910009088B0050808060000402000700878880C
:1019200078050808060000102000700878887805FF
:10193000080806000020500070087888780508081C
:1019400006000068B0007008788878050707060070
:1019500000500070087888780508080600002050BC
:10196000207008788878050505060000702870A0AA
:10197000780507070600FE708880887010600508EB
:10198000080600004020007088F0807005080806F6
:1019900000001020007088F0807005080806000024
:1019A0002050007088F08070050707060000500086
:1019B0007088F08070030808060100804000C04075
:1019C0004040E0030808060100204000C0404040BD
:1019D000E003080806010040A000C0404040E003CA
:1019E0000707060100A000C0404040E005090906C5
:1019F0000000502050087888888870050808060084
:101A00000068B000B0C88888880508080600004053
:101A100020007088888870050808060000102000E3
:101A200070888888700508080600002050007088BB
:101A300088887005080806000068B00070888888EB
:101A4000700507070600005000708888887005053B
:101A5000050600012000F8002005050506000078B5
:101A600098A8C8F00508080600004020008888886B
:101A70008870050808060000102000888888887093
:101A8000050808060000205000888888887005072F
:101A90000706000050008888888870050A0A06003A
:101AA000FE10200088888850204080050909060023
:101AB000FE8080F0888888F080800509090600FE95
:101AC0005000888888502040804361703A00473237
:101AD0002F47332062616420706172616D657465A7
:101AE00072730A003F5A206F7574206F662072610E
:101AF0006E67652028003F59206F7574206F66203F
:101B000072616E676520282D0020746F20003F5899
:101B1000206F7574206F662072616E676520282DB6
:101B20000050726F6265204F6666736574205800BE
:101B3000656E7175657565696E672022006F6B0053
:101B4000526573656E643A20004573667269616E12
:101B5000646F206D6573612E2E2E00417175656373
:101B6000656E646F206D6573612E2E2E0023646593
:101B700066696E652044454641554C545F004B6490
:101B800020004B6920004B702000504944204175D3
:101B9000746F74756E652066696E6973686564211B
:101BA0002050757420746865206C617374204B70CC
:101BB0002C204B6920616E64204B6420636F6E7330
:101BC00074616E74732066726F6D2062656C6F77DE
:101BD00020696E746F20436F6E66696775726174F9
:101BE000696F6E2E680A00504944204175746F7405
:101BF000756E65206661696C6564212074696D6528
:101C00006F75740A000A20436C6173736963205016
:101C10004944200A00204B643A2000204B693A20B6
:101C200000204B703A20000A204E6F206F766572BC
:101C300073686F6F740A002054753A2000204B754A
:101C40003A2000206D61783A2000206D696E3A20BC
:101C50000020643A200020626961733A20005049F4
:101C600044204175746F74756E652073746172746D
:101C70000A00504944204175746F74756E65206682
:101C800061696C6564212054656D7065726174755D
:101C9000726520746F6F20686967680A0050494454
:101CA000204175746F74756E65005049442041750C
:101CB000746F74756E65206661696C65642120427D
:101CC0006164206578747275646572206E756D62EA
:101CD00065720A0052756E6F7574204469737420C2
:101CE0006D6D004361727265676172206D6D0044B5
:101CF0006573636172722E206D6D004469C3A26DBD
:101D00006574726F2046696C2E0045787472757325
:101D1000C3A36F20656D206D6DC2B3004D333033AA
:101D2000205531204525692053256900504944201C
:101D30004175746F74756E65202A005049442D44B6
:101D4000202A005049442D49202A005049442D5052
:101D5000202A002008204661746F72002008204D60
:101D6000C3A178002008204D696E0054656D702E67
:101D7000204175746F6DC3A17469636100452F6D57
:101D80006D00506173736F205A2F6D6D0050617339
:101D9000736F20592F6D6D00506173736F20582F32
:101DA0006D6D00496E6963696172004D34323800AF
:101DB000506173736F2F6D6D00436F6D70656E733F
:101DC000617220536F6E646100446573762E204A01
:101DD000756EC3A7C3A36F004163656C657261C371
:101DE000A7C3A36F00436F6D70656E736172206F40
:101DF000726967656D005072C3B378696D6F204377
:101E0000616E746F0050726F6E746F0050726F78F5
:101E10002E00496E646F2070617261206F72696775
:101E2000656D0056616C6F72205A00C38D6E6469D7
:101E30006365205900C38D6E646963652058004E48
:101E40006976656C61722043616E746F73005375BF
:101E50006176697A617220616C74757261004564A3
:101E600069746172204D616C6861004732380A47BD
:101E70003239004E6976656C6172204D6573610080
:101E800024F4D43050C38E20C2A24017828B70112C
:101E9000127A910D816CD90AA861E108C7586607CA
:101EA000615143061E4B5D05C145A7041A4111044B
:101EB000093D9803713931034036DB0265339102E5
:101EC000D4305402802E1D02632CEE01752AC50108
:101ED000B028A001102781018F2564012B244B011C
:101EE000E0223401AC211F018D200D01801FFC0078
:101EF000841EED00971DDF00B81CD200E61BC60053
:101F0000201BBC00641AB200B219A8000A19A00074
:101F10006A189900D117910040178B00B5168400FC
:101F200031167E00B31579003A157300C7146F009F
:101F300058146A00EE1366008813630025135E00D0
:101F4000C7125B006C12570015125400C1115100EA
:101F500070114F0021114B00D61049008D10470021
:101F60004610440002104200C00F4000800F3E00A7
:101F7000420F3C00060F3B00CB0E3800930E37009B
:101F80005C0E3500270E3400F30D3200C10D310018
:101F9000900D3000600D2E00320D2D00050D2C002F
:101FA000D90C2B00AE0C2900850C29005C0C2700F5
:101FB000350C27000E0C2600E80B2400C40B24006F
:101FC000A00B23007D0B23005A0B2100390B2100AD
:101FD000180B2000F80A1F00D90A1E00BB0A1E00B9
:101FE0009D0A1D00800A1D00630A1C00470A1B0091
:101FF0002C0A1B00110A1A00F7091A00DD09190042
:10200000C4091900AB091900920917007B091800CF
:10201000630917004C09160036091600200916003E
:102020000A091500F5081500E0081400CC08140092
:10203000B8081400A4081400900813007D081200CA
:102040006B081300580812004608120034081100EB
:10205000230811001208110001081100F0071000F8
:10206000E0071000D0071000C0071000B0070F00F5
:10207000A107100091070E0083070F0074070F00DF
:1020800065070E0057070E0049070E003B070D00BD
:102090002E070E0020070D0013070D0006070D0088
:1020A000F9060C00ED060D00E0060C00D4060C004D
:1020B000C8060C00BC060C00B0060C00A4060B0001
:1020C00099060C008D060B0082060B0077060B00AC
:1020D0006C060B0061060A0057060B004C060A004E
:1020E00042060A0038060A002E060A0024060A00E4
:1020F0001A060A001006090007060A00FD05090075
:10210000F4050900EB050900E2050900D9050900FD
:10211000D0050900C7050900BE050900B50508007E
:10212000AD050800A50509009C05080094050800F8
:102130008C050800840508007C050800740508006B
:102140006C050700650508005D05070056050800D9
:102150004E05070047050700400508003805070041
:10216000310507002A050700230507001C050600A6
:10217000160507000F050700080506000205070001
:10218000FB040600F5040700EE040600E804060060
:10219000E2040700DB040600D5040600CF040600B5
:1021A000C9040600C3040600BD040600B704060007
:1021B000B1040500AC040600A6040600A004050056
:1021C0009B04060095040500900406008A0405009F
:1021D00085040500800406007A04050075040500E6
:1021E000700405006B040500660405006104050029
:1021F0005C04050057040500520405004D04050069
:1022000048040500430405003E0404003A040500A8
:1022100035040500300404002C04050027040400E4
:10222000230405001E0404001A040400160405001B
:10223000110404000D040400090405000404040052
:1022400000040400FC030400F8030400F403040089
:10225000F0030400EC030400E8030400E4030400BA
:10226000E0030400DC030400D8030400D4030400EA
:10227000D0030400CC030400C8030300C50303001B
:1022800024F404D9201BC40C5C0E9804C4095F021A
:1022900065077101F405F900FB04B30048048700E9
:1022A000C10369005803550003034500BE023A000C
:1022B0008402310053022A00290225000402200072
:1022C000E4011C00C8011900AF01170098011400B7
:1022D00084011300710110006101100051010E0012
:1022E00043010D0036010B002B010B0020010B00F8
:1022F000150109000C01090003010800FB0008009A
:10230000F3000800EB000700E4000600DE00060012
:10231000D8000600D2000600CC000500C70005006A
:10232000C2000500BD000400B9000400B5000400AF
:10233000B1000400AD000400A9000400A5000300E2
:10234000A20003009F0004009B000300980003000C
:102350009500020093000300900003008D0002002E
:102360008B00030088000200860002008400030046
:10237000810002007F0002007D0002007B0002005D
:10238000790002007700010076000200740002006C
:1023900072000100710002006F0002006D00010078
:1023A0006C0002006A000100690002006700010081
:1023B0006600010065000100640002006200010087
:1023C00061000100600001005F0002005D0001008B
:1023D0005C0001005B0001005A000100590001008F
:1023E000580001005700010056000100550001008F
:1023F000540001005300000053000100520001008E
:1024000051000100500001004F0001004E0000008B
:102410004E0001004D0001004C0001004B00000087
:102420004B0001004A000100490001004800000083
:10243000480001004700010046000000460001007E
:102440004500000045000100440001004300000079
:102450004300010042000000420001004100000072
:1024600041000100400001003F0000003F0001006A
:102470003E0000003E0001003D0000003D00010064
:102480003C0000003C0000003C0001003B0000005C
:102490003B0001003A0000003A0001003900000052
:1024A0003900010038000000380000003800010049
:1024B0003700000037000100360000003600000041
:1024C0003600010035000000350000003500010035
:1024D000340000003400000034000100330000002C
:1024E0003300000033000100320000003200000021
:1024F0003200010031000000310000003100010015
:102500003000000030000000300001002F0000000B
:102510002F0000002F0000002F0001002E000000FF
:102520002E0000002E0001002D0000002D000000F4
:102530002D0000002D0001002C0000002C000000E8
:102540002C0000002C0001002B0000002B000000DC
:102550002B0000002B0001002A0000002A000000D0
:102560002A0000002A0001002900000029000000C4
:1025700029000000290000002900010028000000B7
:1025800028000000280000002800000028000100AA
:10259000270000002700000027000000270000009F
:1025A0002700010026000000260000002600000091
:1025B0002600000026000100250000002500000084
:1025C0002500000025000000250000002500010076
:1025D000240000002400000024000000240000006B
:1025E000240001002300000023000000230000005D
:1025F000230000002300000023000000230001004E
:102600002200000022000000220000002200000042
:102610002200000022000100210000002100000033
:102620002100000021000000210000002100000026
:102630002100010020000000200000002000000018
:10264000200000002000000020000000200000000A
:10265000200001001F0000001F0000001F000000FC
:102660001F0000001F0000001F0000001F000100ED
:102670001E0000001E0000001E0000001E000000E2
:10268000102800004E1C0000D6110000400A000077
:102690008A050000E302000079010000BE0000008E
:1026A0004D6F76696D656E746F004D3834004E69FC
:1026B00076656C61C3A7C3A36F204D657361004944
:1026C000722061206F726967656D2058595A0054F5
:1026D000656D70657261747572610041425300509E
:1026E0004C41005072652D617175656365722024DF
:1026F0000056656C2E2056656E746F696E686100B9
:10270000426F63616C0056656C6F636964616465F8
:10271000004D656E75207072696E636970616C0042
:102720004465736162696C69742E206D6F746F7299
:102730006573004732385A004972206E61206F720B
:102740006967656D205A0047323859004972206E1A
:1027500061206F726967656D2059004732385800F3
:102760004972206E61206F726967656D205800475D
:102770003238004578747275736F7261202400508E
:1027800072652D61712E4D6573612024004573665D
:10279000726961720056617AC3A36F00DF26DB267F
:1027A000486F74656E6420746F6F20636F6C640A89
:1027B00000446F6E652E0A0050756C73696E672059
:1027C000202000556E746F75636865642000534562
:1027D00052564F206E6F74207365742075702E0AE8
:1027E000005761746368696E672070696E730A00D0
:1027F000656E6473746F70206D6F6E69746F722094
:1028000000204D3932205800252900257C00203B2E
:102810002043757272656E74205A00203B20456E0D
:102820006400203B205374617274004772616469D4
:10283000656E74204D6978200020496E76616C6960
:1028400064204520737465707065722000204520F7
:1028500073746570706572206E6F74207370656339
:1028600069666965640A004D3630303A204D7569F5
:10287000746F206672696F005072657373206275A1
:1028800074746F6E20746F2068656174206E6F7A47
:102890007A6C650A00496E736572742066696C61B2
:1028A0006D656E7420616E64207072657373206252
:1028B0007574746F6E0A0020496E76616C696420CD
:1028C000657874727564657220004C657220436F80
:1028D0006E666967757261C3A7C3A36F0053616CAD
:1028E00076617220436F6E666967757261C3A7C3B4
:1028F000A36F00436F6D70656E73617220536F6ECE
:10290000646120656D205A00436F6E6669672E20F2
:102910004176616EC3A7616461004465736C696749
:1029200061646F004C696761646F004445534341C3
:10293000525245472E2046494C414D454E544F007A
:1029400043415252454741522046494C414D454E24
:10295000544F0054524F43412044452046494C4176
:102960004D454E544F00526573746175726F2073FC
:10297000656775726F00416A757374617220240017
:1029800053656E736F722066696C616D656E746FEE
:10299000004D37303220542564004D36303020420F
:1029A0003020542564004D373032203B2564004DE3
:1029B0003730312054256400437573746F6D697A24
:1029C0006172205072652D61712E004D36303020BD
:1029D0004230205425690054726F63617220466949
:1029E0006C616D656E746F202A00436F6E74696E42
:1029F00075617220496D7072657373C3A36F005067
:102A00007572676172206D61697300436F6E6669EC
:102A1000672E206465205265746F6D6164610049A2
:102A20004D5052455353C3834F2050415553414459
:102A300041002020426F63616C3A2000206279746B
:102A400065733B2063726320004E6F2045455052F2
:102A50004F4D2E0A00205200454550524F4D2064E4
:102A600061746173697A65206572726F722E0A00F3
:102A70002073746F7265642073657474696E677314
:102A80002072657472696576656420280020286369
:102A9000616C63756C6174656429210A0020213DB5
:102AA0002000454550524F4D20435243206D6973DD
:102AB0006D61746368202D202873746F72656429BA
:102AC0002000496E6465783A2000204D61726C697F
:102AD0006E3D563831290A00454550524F4D2076FB
:102AE000657273696F6E206D69736D6174636820C0
:102AF00028454550524F4D3D0048617264636F64F4
:102B000065642044656661756C74205365747469EE
:102B10006E6773204C6F616465640A003B2000207F
:102B2000204D363033200020204D343132205300E8
:102B300046696C616D656E742072756E6F75742078
:102B400073656E736F723A0020550046696C616D53
:102B5000656E74206C6F61642F756E6C6F6164209C
:102B60006C656E677468733A0020204D38353120EB
:102B700058005A2D50726F6265204F6666736574F7
:102B80000020204D33303420500020204D33303190
:102B90002050005049442073657474696E67733A1D
:102BA0000020460020480020204D313435205300BD
:102BB0004D6174657269616C20686561747570201F
:102BC000706172616D65746572733A0020204732DE
:102BD00039205720490020204D3432302053004105
:102BE00075746F20426564204C6576656C696E670C
:102BF0003A0020204D323036205800486F6D652055
:102C00006F66667365743A00204A0020204D3230AA
:102C100035204200416476616E6365643A20423C2F
:102C20006D696E5F7365676D656E745F74696D6500
:102C30005F75733E20533C6D696E5F6665656472B7
:102C40006174653E20543C6D696E5F747261766597
:102C50006C5F66656564726174653E204A3C6A75A6
:102C60006E635F6465763E0020540020204D323054
:102C700034205000416363656C65726174696F6EE6
:102C80002028756E6974732F7332293A20503C7076
:102C900072696E745F616363656C3E20523C72655D
:102CA00074726163745F616363656C3E20543C744D
:102CB000726176656C5F616363656C3E0020204DD8
:102CC0003230312058004D6178696D756D20416357
:102CD00063656C65726174696F6E2028756E6974C6
:102CE000732F7332293A0020204D323033205800A0
:102CF0004D6178696D756D20666565647261746596
:102D0000732028756E6974732F73293A00537465A4
:102D100070732070657220756E69743A00204400EB
:102D200020204D3230302053002044697361626CA2
:102D300065640A0046696C616D656E742073657424
:102D400074696E67733A0020204D31343920432076
:102D50003B20556E69747320696E2043656C7369FE
:102D600075730A0020286D6D29002020473231201C
:102D70002020203B20556E69747320696E206D6D94
:102D8000000000FA430000FA43000000410000C8C0
:102D9000410000A0420000A042000016440000B024
:102DA00042D0070000D007000064000000D00700F8
:102DB0000000000001000000010000800055555592
:102DC000000000400033333300AAAA2A00499224AD
:102DD0000000002000C7711C0099991900D1451707
:102DE00000555515003BB113002449120011111173
:102DF00000000010000F0F0F00E3380E0043790DA4
:102E000000CCCC0C00C3300C00E8A20B0064210BFA
:102E100000AAAA0A00703D0A009DD80900427B0959
:102E20000092240900DCD3080088880800104208BA
:102E30000000000800F0C1070087870700755007F1
:102E400000711C07003EEB0600A1BC06006990065D
:102E50000066660600703E06006118060017F4055D
:102E60000074D105005BB00500B2900500627205E8
:102E7000005555050078390500B81E050005050503
:102E8000004EEC040087D40400A1BD040090A70408
:102E90000049920400C17D0400EE690400C7560495
:102EA00000444404005C3204000821040041100482
:102EB00000000004003FF00300F8E0030026D20306
:102EC00000C3C30300CCB503003AA803000A9B0368
:102ED00000388E0300C08103009F750300D0690392
:102EE00000505E03001D53030034480300913D036E
:102EF000003333030016290300381F03009715031E
:102F000000300C0300030303000BFA020049F10236
:102F100000BAE802005CE002002DD802002DD002C9
:102F20000059C80200B0C0020031B90200DAB10293
:102F300000AAAA0200A0A30200BC9C0200FA95020B
:102F4000005C8F0200DF88020082820200457C0262
:102F5000002776020027700200436A02007C6402A8
:102F600000D05E02003F590200C8530200FFFDFC82
:102F7000FAF8F6F4F2F0EEECEAE9E7E5E3E1E0DE98
:102F8000DCDAD9D7D5D4D2D0CFCDCBCAC8C7C5C348
:102F9000C2C0BFBDBCBAB9B7B6B4B3B2B0AFADACC6
:102FA000AAA9A8A6A5A4A2A1A09E9D9C9A9998971B
:102FB00095949392908F8E8D8B8A8988878684834F
:102FC0008281807F7E7D7B7A797877767574737263
:102FD00071706F6E6D6C6B6A696867666564636259
:102FE00061605F5E5D5C5B5A595858575655545343
:102FF000525150504F4E4D4C4B4A4A494847464615
:10300000454443424241403F3E3E3D3C3B3B3A39D2
:10301000383837363535343332323130302F2E2E82
:103020002D2C2B2B2A292928272726252524232325
:1030300022212120201F1E1E1D1C1C1B1B1A1919BA
:103040001818171616151514131312121111100F44
:103050000F0E0E0D0D0C0C0B0A0A090908080707C4
:103060000606050504040303020201000000009A9D
:103070004300009A430000C84353657474696E6747
:10308000732053746F7265640053657474696E675E
:10309000732053746F72656420280020746F6F2052
:1030A0006C6F6E6720657874727573696F6E2070CF
:1030B000726576656E7465640A0020636F6C6420C7
:1030C000657874727573696F6E2070726576656E5F
:1030D0007465640A00DB0FC93F45BCDA3F8FB30259
:1030E00040FCF0274056946140FE4B9B4084A5D89D
:1030F00040E0231841346A5641E859974164DBD5D2
:10310000416E271742B4B75542CE1A9742C8AED582
:1031100042B5885A43D40684BFA65FA7BF7443E074
:10312000BF10B11AC01C2C58C0E8F697C0B849D6D9
:10313000C04E4E17C124D355C1802497C1A0B5D528
:10314000C1121A17C244AE55C2781797C26CACD5DB
:10315000C267885AC32053697A653A200043616E7A
:103160006E6F74206F70656E207375626469722073
:103170000053442063617264206F6B0A006F7065B6
:103180006E526F6F74206661696C65640A00766FB9
:103190006C756D652E696E6974206661696C656415
:1031A0000A004E6F20534420636172640A004D325E
:1031B00034004D32332025730046696C65207365F9
:1031C0006C65637465640A0046696C65206F7065A0
:1031D0006E65643A2000454E4420535542524F5587
:1031E00054494E450A002220706F730022207061FE
:1031F00072656E743A2200535542524F5554494EEF
:10320000452043414C4C207461726765743A22003A
:1032100053756263616C6C204F766572666C6F7774
:10322000004578636565646564206D617820535559
:1032300042524F5554494E452064657074683A3186
:103240000A0057726974696E6720746F2066696C32
:10325000653A2000667265736800646F696E670086
:103260004E6F7720000268747470733A2F2F6D616F
:10327000726C696E66772E6F726700322E302E3652
:10328000002020506C616E6E6572427566666572D4
:1032900042797465733A20002046726565204D6559
:1032A0006D6F72793A2000436F6D70696C65643A96
:1032B0002041756720313720323032300A00204CEF
:1032C00061737420557064617465643A20323032E1
:1032D000302D30372D3238207C20417574686F7264
:1032E0003A2028416C657873616E64726F202C20DF
:1032F000476F6EC3A7616C766573290A00322E3062
:103300002E360A004D61726C696E0020536F667430
:10331000776172652052657365740A002057617485
:103320006368646F672052657365740A0020427297
:103330006F776E206F75742052657365740A002074
:1033400045787465726E616C2052657365740A000D
:10335000506F77657255700A006175746F25632E22
:1033600067004732385859004D31303031006572AE
:10337000726F722077726974696E6720746F20664D
:10338000696C650A00446F6E6520736176696E67CB
:103390002066696C652E0A004D32390046696E73ED
:1033A00020646520637572736F00255320256320A8
:1033B00025632025632025630020503A0020583AD9
:1033C00000656E6473746F7073206869743A2000CE
:1033D00001FFFFFFFFFFFFFFFFFFFFFFFFFF0FFFEB
:1033E000FFFFFFFFFFFFFFFFFFFFFFFF1E000000CB
:1033F0000000000000000007FFFF38000000000090
:10340000000000000003FFFF70000000000000004B
:1034100000000001FFFF600000000000000000004D
:103420000000FFFF6000000000000000000000003E
:103430007FFFC000000000000000007800003FFF98
:10344000C00FC0FC00000000007818001FFFC03F44
:10345000E1FF0000000000783C000FFFC07FF3FF99
:103460008000000000783C0007FFC0FFFFFFC000A5
:10347000000000783C0003FFC1F87F87E0000000F7
:103480000078000001FFC1F03F03E0000000007879
:10349000000000FFC1E01E01E01F0003E0783C03D4
:1034A000F07FC1E01E01E07FC00FF8783C07FC3FD1
:1034B000C1E01E01E1FFE01FFC783C0FFE1FC1E0F0
:1034C0001E01E3FFF03FFE783C1FFE0FC1E01E012E
:1034D000E3F3F83F3E783C3F3F07C1E01E01E7E0E1
:1034E000FC7C1F783C3E1F07C1E01E01E7C07C7CCE
:1034F0000F783C3C0F03C1E01E01E7807C780F7819
:103500003C3C0F03C1E01E01E7803C7800783C3C66
:103510000F03C1E01E01E7803C7800783C3C0F03BC
:10352000C1E01E01E7803C7800783C3C0F03C1E01D
:103530001E01E7C03C7800783C3C0F03C1E01E014F
:10354000E3E03C78007C3C3C0F03C1E01E01E3FF5C
:103550003FF8007FBC3C0F03C1E01E01E1FF3FF8D4
:10356000003FBFFC0F03C1E01E01E0FF3FF8001F5A
:10357000BFFC0F03C1E01E01E07F3FF8000FBFFC5E
:103580000F036000000000000000000000000007C2
:103590006000000000000000000000000006700055
:1035A00000000000000000000000000E38000000D5
:1035B0000000000000000000001C1E0000000000D1
:1035C00000000000000000780FFFFFFFFFFFFFFF7B
:1035D000FFFFFFFFFFF001FFFFFFFFFFFFFFFFFF08
:1035E000FFFFFF801000C902E0002C010001220152
:1035F0003001180170010E01B0010401F001FA0060
:103600005002F000F002E6009003DC004004D2001B
:103610004005C8004006BE000008B400B009AA007A
:10362000D00BA000600E960060118C000015820087
:1036300020197800C01D6E00A0226400B0275A0037
:10364000902C500000314600E0343C00103832002D
:10365000903A2800603C1E00A03D1400803E0A0005
:10366000203F00004171756563696D656E746F2060
:1036700066616C686F750048656174696E67206685
:1036800061696C656400202D20496E76616C696407
:10369000206578747275646572206E756D626572EE
:1036A00020210A004553434150452054C389524DBF
:1036B00049434F00546865726D616C2052756E61AC
:1036C000776179004572726F3A54656D70204DC311
:1036D000A178696D61004D415854454D5020747278
:1036E00069676765726564004572726F3A54656D0B
:1036F00070204DC3AD6E696D61004D494E54454D0E
:103700005020747269676765726564000A0A002058
:10371000205A5F4D494E5F50524F42453A0020209B
:103720005A5F4D494E3A002020595F4D494E3A00AC
:103730002020585F4D494E3A00202F002042403A49
:103740000020403A000009121B242D363F48415A00
:10375000536C657E7719100B023D342F2651584368
:103760004A757C676E323B2029161F040D7A7368F8
:10377000615E574C452B2239300F061D14636A7168
:1037800078474E555C646D767F4049525B2C253EF0
:103790003708011A137D746F6659504B42353C2728
:1037A0002E1118030A565F444D727B60691E170C78
:1037B000053A3328214F465D546B627970070E1528
:1037C0001C232A31384148535A656C777E09001B07
:1037D000122D243F3658514A437C756E67101902EA
:1037E0000B343D262F737A6168575E454C3B322976
:1037F000201F160D046A6378714E475C55222B30EA
:1038000039060F141D252C373E0108131A6D647FED
:103810007649405B523C352E2718110A03747D66A9
:103820006F5059424B171E050C333A21285F564DF5
:10383000447B7269600E071C152A233831464F54A9
:103840005D626B70797C3C3E5E2B3D3F2F5B5D3B48
:103850002C2A225C004D697865720043616E6365B5
:103860006C6172003A202534642E2564206D6D0051
:103870002020456E64205A3A005374617274205AB5
:103880003A002020456E6420562D746F6F6C0053F3
:103890007461727420562D746F6F6C00436F6D6D80
:1038A000697420562D746F6F6C204D6978004379D0
:1038B000636C65204D697800436F6D706F6E656E47
:1038C00074203D00562D746F6F6C732057657265C0
:1038D0002052657365740052657665727365204782
:1038E00072616469656E74005425692D3E542569C2
:1038F00000526573657420562D746F6F6C730041B0
:10390000637469766520562D746F6F6C00496D7015
:1039100072696D697220646F20534400205A3A2006
:103920000020593A200042656420583A2000496D31
:103930007072657373C3A36F2050617573616461A6
:103940000050726F62696E67204661696C65640A37
:103950000046616C686120616F20736F6E646172F4
:1039600000486F6D6520257325732573205072699B
:103970006D6569726F0020573A0041472D5A392012
:1039800070726F6E746F2E00496D7072696D696E22
:10399000646F2E2E2E00220A00556E6B6E6F776EAE
:1039A00020636F6D6D616E643A2022001FE020106D
:1039B000201020101020102020102010303008403F
:1039C000048003001FE03FF03FF03FF01FE01FE0E6
:1039D0003FF03FF03FF00FC0078003003FFFF0389B
:1039E000007030FC3020FC102078102030102C00AB
:1039F000D02E31D02F7BD02F7BD02E31D02C00D0A9
:103A000020301020781020FC1030FC303800703F3F
:103A1000FFF03FFFF0380070318630238710278792
:103A2000902F87D02F03D0203010207810207810CE
:103A30002030102F03D02F87D02787902387103175
:103A400086303800703FFFF01FFFF81FFFF80410AA
:103A50004002082002082004104008208010410085
:103A60001041000820800410400000001FFFF81FD4
:103A7000FFF83300CC00CC12004800481200480088
:103A800048120048004813FFCFFFC810000000088C
:103A90001FFF83FFF8000FC7E000000FEFE00000FA
:103AA00003EF80000001EF000000006C0000000048
:103AB0000000002568753A25303268750025687564
:103AC000642025303268753A253032687500202030
:103AD000202020202000456E636C6F737572650096
:103AE0006F70656E206661696C65642C2046696C38
:103AF000653A200020453A0020593A000000211084
:103B0000422063308440A550C660E7700881299147
:103B10004AA16BB18CC1ADD1CEE1EFF131121002EF
:103B200073325222B5529442F772D6623993188397
:103B30007BB35AA3BDD39CC3FFF3DEE362244334BB
:103B400020040114E664C774A44485546AA54BB5E7
:103B500028850995EEE5CFF5ACC58DD5533672268F
:103B600011163006D776F6669556B4465BB77AA737
:103B700019973887DFF7FEE79DD7BCC7C448E558DB
:103B80008668A7784008611802282338CCC9EDD987
:103B90008EE9AFF9488969990AA92BB9F55AD44A2F
:103BA000B77A966A711A500A333A122AFDDBDCCBD7
:103BB000BFFB9EEB799B588B3BBB1AABA66C877CFB
:103BC000E44CC55C222C033C600C411CAEED8FFD27
:103BD000ECCDCDDD2AAD0BBD688D499D977EB66ECF
:103BE000D55EF44E133E322E511E700E9FFFBEEF77
:103BF000DDDFFCCF1BBF3AAF599F788F8891A98139
:103C0000CAB1EBA10CD12DC14EF16FE18010A10022
:103C1000C230E3200450254046706760B983989312
:103C2000FBA3DAB33DC31CD37FE35EF3B102901272
:103C3000F322D2323542145277625672EAB5CBA5DE
:103C4000A89589856EF54FE52CD50DC5E234C324C2
:103C5000A01481046674476424540544DBA7FAB7B2
:103C60009987B8975FE77EF71DC73CD7D326F23612
:103C70009106B01657667676154634564CD96DC9FE
:103C80000EF92FE9C899E9898AB9ABA94458654862
:103C900006782768C018E1088238A3287DCB5CDB52
:103CA0003FEB1EFBF98BD89BBBAB9ABB754A545AB2
:103CB000376A167AF10AD01AB32A923A2EFD0FED1E
:103CC0006CDD4DCDAABD8BADE89DC98D267C076C02
:103CD000645C454CA23C832CE01CC10C1FEF3EFFF2
:103CE0005DCF7CDF9BAFBABFD98FF89F176E367E52
:103CF000554E745E932EB23ED10EF01E564465733F
:103D00006C6F63616D656E746F206D696E00566DCA
:103D1000696E00566D6178204500566D6178205AB5
:103D200000566D6178205900566D61782058004129
:103D30006D6178204500416D6178205A00416D61C8
:103D400078205900416D61782058004D6F76696D7B
:103D5000656E746F20410052657472616972204112
:103D6000004163656C2E00436F6D70656E73617208
:103D700020536F6E646120656D205900436F6D7034
:103D8000656E73617220536F6E646120656D20589B
:103D9000006F70656E0054524947474552454400D4
:103DA00066696C616D656E74007A5F70726F6265D2
:103DB000007A5F6D696E00795F6D696E00785F6D86
:103DC000696E005265706F7274696E6720656E640B
:103DD00073746F70207374617475730A0046616C3C
:103DE000686120616F20697220C3A0206F726967CB
:103DF000656D005761726E696E673A20486F6D6934
:103E00006E672042756D702044697669736F722009
:103E10003C20310A00000040C0000080C1000000CA
:103E200000000048420000484200008040020204B6
:103E30000000A0400000A0400000004000809B4324
:103E40000000A2430000C843FFFFFF5A5F4D494EE8
:103E50005F50524F42455F50494E005A5F53544F96
:103E6000505F50494E005A5F535445505F50494E81
:103E7000005A5F4D494E5F50494E005A5F454E41D2
:103E8000424C455F50494E005A5F4449525F504989
:103E90004E00595F53544F505F50494E00595F5385
:103EA0005445505F50494E00595F4D494E5F50494F
:103EB0004E00595F454E41424C455F50494E0059B6
:103EC0005F4449525F50494E00585F53544F505F12
:103ED00050494E00585F535445505F50494E00586A
:103EE0005F4D494E5F50494E00585F454E41424C30
:103EF000455F50494E00585F4449525F50494E005B
:103F0000535549434944455F50494E005345525625
:103F10004F335F50494E00534552564F325F504920
:103F20004E00534552564F305F50494E0053445354
:103F3000530053445F4445544543545F50494E0039
:103F40004C45445F50494E004C43445F50494E53EA
:103F50005F5253004C43445F50494E535F454E41BE
:103F6000424C45004C43445F50494E535F4434003B
:103F70004B494C4C5F50494E004845415445525FB7
:103F80004245445F50494E004845415445525F31D7
:103F90005F50494E004845415445525F305F50499B
:103FA0004E0046494C5F52554E4F5554325F504972
:103FB0004E0046494C5F52554E4F55545F50494E46
:103FC0000046414E315F50494E0045335F535445E2
:103FD000505F50494E0045335F454E41424C455F6E
:103FE00050494E0045335F4449525F50494E0045A9
:103FF000325F535445505F50494E0045325F454E45
:1040000041424C455F50494E0045325F4449525F42
:1040100050494E0045315F535445505F50494E0062
:1040200045315F454E41424C455F50494E00453158
:104030005F4449525F50494E0045305F53544550EC
:104040005F50494E0045305F454E41424C455F5000
:10405000494E0045305F4449525F50494E0045305B
:104060005F4155544F5F46414E5F50494E00444FAB
:10407000474C43445F53434B00444F474C43445FDA
:104080004D4F53490042544E5F454E430042544EFB
:104090005F454E320042544E5F454E310042454529
:1040A0005045525F50494E004156525F53535F5046
:1040B000494E004156525F53434B5F50494E0041B9
:1040C00056525F4D4F53495F50494E004156525F23
:1040D0004D49534F5F50494E0054454D505F424546
:1040E000445F50494E0054454D505F315F50494E3A
:1040F0000054454D505F305F50494E005458443095
:1041000000525844300050574D3A20202534640066
:1041100020202020434F4D002020206E6F6E2D73F5
:1041200074616E646172642050574D206D6F6465D8
:1041300000202020636F6D7061726520696E746568
:10414000727275707420656E61626C656400202007
:10415000206F766572666C6F7720696E7465727217
:1041600075707420656E61626C656400202020208B
:1041700054494D534B00423A2000413A2000202040
:10418000202054434352002020202043533A200053
:104190002020202057474D3A20002020202054493D
:1041A0004D45520020697320616C736F20746965FE
:1041B0006420746F20746869732070696E005449BC
:1041C0004D45523143000A202E002020506F72745A
:1041D0003A2000202020416E616C6F6720696E20BC
:1041E0003D2025356C64003C756E757365642F75D4
:1041F0006E6B6E6F776E3E004F7574707574203DF8
:104200002000496E70757420203D200070726F741C
:1042100065637465642000202841253264292020CC
:1042200000253364200050494E3A200047004800E2
:10423000000088008A008C00B300B40000009800E1
:104240009A009C00A800AA00AC0028012A012C01B9
:10425000440045006E00800081006F00B000B10096
:104260007000900091007100A000A1007200200178
:104270002101730001410001FC400101F1404300B4
:10428000E6404500D9404400CC403201BF403301F4
:10429000B3403401A84035019D40250195401B01E4
:1042A0008D40190185401D01794033016E40340174
:1042B0005E40060153401C014540180139401A0177
:1042C0002E40220120401E011440240109402701F4
:1042D000FB3F1601EF3F2801E43F2C01D63F2A01A6
:1042E000CA3F2B0166400901C13F0601B23F3901B7
:1042F000A23F3A01953F0A01883F0701793F080133
:10430000703F2301643F1101543F1701483F1001E2
:10431000403F0D01D0403201C3403301B74034016A
:10432000323F31012D3F3501223F0401173F050186
:104330000C3F0B01AC403501003F0C01F63E3D0146
:10434000E93E3801DF3E0301D43E3C01C93E030192
:10435000BF3E3701B23E2601A83E0E019D3E36010A
:10436000923E0E01883E30017B3E3E01713E1201BD
:10437000663E2E015B3E12014B3E1301566F6C747C
:1043800061720054726F6361722046696C616D6581
:104390006E746F005061726172004D323100547260
:1043A0006F63617220534400436F6E74696E756170
:1043B0007220696D7072657373C3A36F0053656D6E
:1043C0002063617274C3A36F20534400416A757304
:1043D00074617200506172617220696D70726573F0
:1043E00073C3A36F0050617573617220696D707241
:1043F000657373C3A36F00496E666F726D61C3A767
:10440000C3B5657300496E696369617220496D7057
:1044100072657373C3A36F00496D7072696D6972C1
:104420000043616E6E6F7420656E746572207375E3
:10443000626469723A2000022E2E005061726B692C
:104440006E672E2E2E0000004573706572616E64DB
:104450006F206F00696E6963696F20646100747218
:104460006F63612064652066696C616D656E746F51
:10447000004573706572616E646F0072656D6FC325
:10448000A7C3A36F2064652066696C616D656E7457
:104490006F00004171756563656E646F206F206207
:1044A0006F63616C00416775617264652E2E2E002A
:1044B000005072657373696F6E65206F20626F7450
:1044C000C3A36F00702F2061717565636572206FE3
:1044D00020626F63616C0000436F6C6F71756520C3
:1044E00066696C616D656E746F0070726573736977
:1044F0006F6E65206F20626F74C3A36F007061726E
:104500006120636F6E74696E7561722E2E2E004588
:1045100073706572616E646F0066696C616D656E63
:10452000746F0000417065727465206F20626F7453
:10453000C3A36F207061726100636F6E74696E75E2
:10454000617220696D7072657373C3A36F0000455B
:1045500073706572616E646F20696D7072657373DC
:10456000C3A36F00636F6E74696E7561720000455E
:1045700073706572652070656C610070757267613B
:104580002064652066696C616D656E746F00000063
:10459000002100240027002A002D003000330001F4
:1045A000010000040107010A010000220025002883
:1045B000002B002E0031003400020100000501082C
:1045C000010B01000020002300260029002C002FF1
:1045D0000032000001000003010601090105050584
:1045E00005070508080808020202020A0A0808046A
:1045F0000404040101010101010101030303030398
:10460000030303040707070C0C0C0C0C0C0C0C0226
:1046100002020206060606060606060B0B0B0B0B2D
:104620000B0B0B0102102020080810204010204026
:104630008002010201080402010102040810204066
:104640008080402010080402018004020180402084
:1046500010080402010804020101020408102040AD
:1046600080010204081020408000000A0B02090C9F
:104670000D0E080703040100000000000000000008
:10468000000000000000000000000000000000002A
:1046900000000000001211100000000000000000E7
:1046A0000000000000000000000000000000004DBD
:1046B0006F7665722025736D6D004D6F7665722083
:1046C000302E316D6D004D6F76657220316D6D004D
:1046D0004D6F7665722031306D6D004D6F7665726D
:1046E000206569786F004578747275732E206D743B
:1046F0006F2066726961004D6F766572204578742F
:104700007275736F72004D6F766572205A004D6F2F
:104710007665722059004D6F7665722058003F0013
:104720005265736574617200496E696369617220D4
:10473000454550524F4D00496D7072657373C3A368
:104740006F2041626F7274616461004D32350050B8
:10475000617573696E672E2E2E00454550524F4D80
:104760002056657273696F6E204572726F720045D4
:104770004550524F4D20496E646578204572726FE6
:104780007200454550524F4D2043524320457272AE
:104790006F720049676E6F72650020423A002043D5
:1047A0006F756E7420413A00453100626564002CDB
:1047B0002073797374656D2073746F7070656421F4
:1047C000204865617465725F49443A2000007802B0
:1047D000F00111241FBECFEFD1E2DEBFCDBF00E05C
:1047E0000CBF13E0A0E0B2E0E4EEFEEA02E00BBF93
:1047F00002C007900D92A434B107D9F726E1A4E4D2
:10480000B3E001C01D92AB35B207E1F713E2C8EE89
:10481000D3E200E006C021970109802FFE010F942A
:10482000AE53C73ED10780E00807A9F70F94093DB2
:104830000D9460570C9400002F923F924F925F921C
:104840006F927F928F929F92AF92BF92CF92DF92A0
:10485000EF92FF920F931F93CF93DF93CDB7DEB705
:10486000AD970FB6F894DEBF0FBECDBF8DA72091D8
:104870004E032CA381E080934E0390912A049D3433
:1048800009F40DC3943511F40C944D35973411F09F
:104890000C94763520912804309129042B31310570
:1048A00009F48DC09CF42430310534F422303105F4
:1048B000CCF537FF2BC0EFC22430310509F440C0DE
:1048C0002531310511F40C947835E5C22A323105D1
:1048D00009F4BAC15CF42D31310509F49AC00CF425
:1048E00088C02E31310509F4B2C0D5C22B3531054F
:1048F00009F427C12C35310509F428C12A353105C1
:1049000009F0C9C210924D030C9478358091C70EFE
:10491000813011F00C9478350E94DA8E0F94782053
:104920000C9478358091C70E813011F00C94783555
:104930002230310509F080E00E94C1670C9478357F
:1049400080E50E94AD46882329F00E943A446B011D
:104950007C0103C0C12CD12C760183E50E94AD46B9
:10496000882361F00E94314620E030E04AE754E4B9
:104970000F942F4D0F9444556B017C010E9468AD3C
:104980008091EC15811105C060E083E997E00F94F8
:104990000F370F94BE33C60ED71EE81EF91E0F94B4
:1049A000BE33DC01CB018C199D09AE09BF09B7FDEF
:1049B00002C00C94783580E00E943A3EF0CF0E940D
:1049C000BCFA81110C9478358CE0E6EAF2E0DE0165
:1049D000119601900D928A95E1F760E070E080E514
:1049E0000E942394BE016F5F7F4F0E94E8BA0C942F
:1049F00078358091530F8770873011F00C94813592
:104A000060E08FE40E94D54681110C9478350C94B7
:104A100081350F94BE336093540F7093550F80937C
:104A2000560F9093570F0E94BCFA81110C94783561
:104A300080918A05882311F40C94FD3560E08FE4A1
:104A40000E94D54681110C9478350C94FD35209147
:104A5000470F3091480F4091490F50914A0F609194
:104A60006E0270916F0280917002909171020F94AA
:104A7000D153AB01BC0188E50E94715C69837A83E4
:104A80008B839C8320914B0F30914C0F40914D0FA5
:104A900050914E0F60917202709173028091740276
:104AA000909175020F94D153AB01BC0189E50E942E
:104AB000715C6D837E838F839887BE016B5F7F4FB0
:104AC000CE0101960E944A44882311F40C94783553
:104AD00080E00E94B64C0F94782361E085E40E9448
:104AE000D54621E0482FBE016B5F7F4FCE01019676
:104AF0000E9477FB6B017C019B01AC010F94C356B4
:104B0000811119C049815A816B817C8186E299E3C8
:104B10000E94023E4D815E816F81788581E299E33A
:104B20000E94023EB701A6018CE199E30E94023E79
:104B30008AE00E94343B0F945F230F9454250C9419
:104B400078358FE080934D030C94783512EB212E4D
:104B500012E0312E0CE9E02E05E1F02E8EE692E017
:104B600099A388A38EE1C82E82E1D82E00E010E040
:104B7000F10181911F010E94AD46882309F44AC0CA
:104B80000E9431462B013C01133049F0F60120818F
:104B90003181428153810F94D0532B013C01E8A114
:104BA000F9A12081318142815381C301B2010F9467
:104BB000D0534B015C012DEB37E346E855EB0F94E6
:104BC000315687FD0AC02DEB37E346E855E3C501B2
:104BD000B4010F94C94C1816ECF4133051F4409200
:104BE0007A0250927B0260927C0270927D0201E018
:104BF00011C0A5019401F7016081718182819381C7
:104C00000F94D153F7016083718382839383812F43
:104C10000F94B71F1F5FF4E0EF0EF11C28A139A11C
:104C20002C5F3F4F39A328A334E0C30ED11C1430AE
:104C300009F09ECF002321F08AE792E00E9479AD2F
:104C40000F9454250C9478358091C70E813011F063
:104C50000C94783589E40E94AD46E82E882321F033
:104C60000E942D46082F01C000E08AE40E94AD4654
:104C7000F82E882321F00E942D46182F01C010E045
:104C8000EE2011F0033020F4FF2041F0133030F01B
:104C90008FE997E00E94463B0C94783580E1EEE680
:104CA000F2E0A8EAB5E101900D928A95E1F7EE20D5
:104CB00019F1602F000F770B880B990B0F94D04CD4
:104CC00020914105309142054091430550914405A2
:104CD0000F942F4D209133053091340540913505C7
:104CE000509136050F94D1536093A8157093A91570
:104CF0008093AA159093AB15FF2019F1612F110F26
:104D0000770B880B990B0F94D04C2091450530916F
:104D1000460540914705509148050F942F4D20912D
:104D20003705309138054091390550913A050F9477
:104D3000D1536093AC157093AD158093AE159093DD
:104D4000AF1560E080E50E94D5468823C1F1EE20D2
:104D5000D1F02091470F3091480F4091490F509169
:104D60004A0F6091A8157091A9158091AA1590918C
:104D7000AB150F94D0536093A8157093A915809329
:104D8000AA159093AB15FF20D1F020914B0F3091D5
:104D90004C0F40914D0F50914E0F6091AC1570919A
:104DA000AD158091AE159091AF150F94D0536093CF
:104DB000AC157093AD158093AE159093AF1540E090
:104DC00050E0BA0186E40E94715C6B017C0120E036
:104DD00030E0A9010F94315618165CF420E030E061
:104DE00040E752E4C701B6010F94CB546B017C013C
:104DF00003C0C12CD12C760180905E0290905F029E
:104E0000A0906002B090610220E030E0A901C701EB
:104E1000B6010F94C94C882341F0C0925E02D09233
:104E20005F02E0926002F092610200919D02109197
:104E30009E0284E690E090939E0280939D02C09033
:104E40004302D0904402E0904502F090460280E098
:104E500090E0A0E8BFE38093430290934402A093C4
:104E60004502B09346020F94782080925E029092A1
:104E70005F02A0926002B092610210939E020093C2
:104E80009D02C0924302D0924402E0924502F09209
:104E900046020C9478350E94B2F80C947835009153
:104EA0002804109129040837110509F4CCC70CF027
:104EB00083C10D34110509F410C50CF06EC00A3120
:104EC000110509F42AC3C4F50431110509F4D2C24D
:104ED0008CF40131110509F4B9C234F40230110522
:104EE00008F47CC20C944A350231110509F476C6E7
:104EF0000C944A350731110509F4E1C29CF40531DF
:104F0000110509F4D8C20631110511F00C944A3587
:104F10000E9430D580915014877F80628093501416
:104F20000C9478350831110509F4DEC209311105F8
:104F300009F4E6C20C944A350F31110509F401C495
:104F400084F40C31110509F449C30CF4F4C20D3199
:104F5000110509F44BC30E31110509F44EC30C942D
:104F60004A350B32110509F4B0C454F4003211056E
:104F700009F4A4C30A32110509F48EC40C944A350D
:104F80000B34110509F4A5C40C34110511F00C946F
:104F90004A350E942FB80C9478350C36110509F467
:104FA00099C50CF04DC00535110509F44DC67CF5C9
:104FB0000235110509F404C604F50135110511F097
:104FC0000C944A350E9451DE0E9444B80E942EAFD4
:104FD0000E94CD3A10928C0510928B0568EE73E01A
:104FE00080E090E00E94283A0E94F43A60E08FEC62
:104FF00098E00F940F370C9478350335110509F4B8
:10500000E6C50435110509F4E9C50C944A3509369D
:10501000110509F4AAC454F40C35110509F437C676
:105020000836110509F45DC40C944A350A36110599
:1050300009F4AFC40B36110509F4E9C40C944A35E0
:105040000137110509F450C5C4F40E36110509F4F1
:10505000E9C40CF467C40F36110509F4F6C400372F
:10506000110511F00C944A3541E060E070E08AEBE4
:1050700098E00E94703B0C9478350537110509F4CF
:1050800097C60CF08CC00237110509F48AC60337A5
:10509000110511F00C944A3585E29AE00E94463BD6
:1050A00060E085E19AE00E94E56C60E080E09AE0D3
:1050B0000E94E56C61E080E397E40E94E56C61E0AA
:1050C00085EF99E00E94E56C61E085EE99E00E9431
:1050D000E56C60E08CED99E00E94E56C61E082EDAA
:1050E00099E00E94E56C61E088EC99E00E94E56C33
:1050F00061E081EC99E00E94E56C61E089EB99E068
:105100000E94E56C61E08BEA99E00E94E56C60E04A
:105110008DE999E00E94E56C60E08EE899E00E94DC
:10512000E56C60E080E899E00E94E56C60E08AE66A
:1051300099E00E94E56C60E089E599E00E94E56CE9
:1051400060E08AE499E00E94E56C61E083E499E024
:105150000E94E56C60E08EE299E00E94E56C60E000
:1051600080E299E00E94E56C61E08DE099E00E94A8
:10517000E56C60E080E099E00E94E56C61E08BEF17
:1051800098E00E94E56C60E08EEE98E00E94E56C8D
:1051900060E08AED98E00E94E56C0C947835063763
:1051A000110509F415C60737110511F00C944A359D
:1051B0000F9405260C9478350F3281E0180711F40E
:1051C0000C9496330CF078C00B3C110509F459C7C8
:1051D000ECF5033A110509F4B1C6E4F40C381105F5
:1051E00009F4A6C46CF40937110511F00C944A3582
:1051F0001092E50C1092E40C0F9438260C9478353C
:105200000139110509F426C60B39110509F4B2C498
:105210000C944A350E3B110509F4A9C46CF4043A08
:10522000110509F4B3C6063A110511F00C944A357C
:105230000E9436940C947835083C110509F4B9C6DF
:10524000093C110509F4FAC60C944A350C3D1105C8
:1052500011F40C94823184F40D3C110509F461C7FA
:105260000CF42EC70E3C110509F469C7033D110566
:1052700009F482C70C944A350C32E1E01E0711F4A0
:105280000C944A3264F40D3D110511F40C94A931CB
:10529000023E110511F40C94FE310C944A350D3286
:1052A00021E0120711F40C945F320E32114011F418
:1052B0000C9452330C944A35053F81E0180711F4E1
:1052C0000C947F340CF04BC00A39E1E01E0709F45E
:1052D00007C404F5003921E0120711F40C94993346
:1052E0003CF40033114011F40C94DF320C944A3535
:1052F000013991E0190711F40C949C3302391140E3
:1053000011F00C944A3580E00E9449AC0F9454256A
:105310000C947835053AF1E01F0711F40C94AC3386
:105320007CF40C3931E0130711F40C94A233043AE5
:10533000114011F00C944A350E94294E0C94783596
:105340000C3A91E0190711F40C942234043F1140F7
:1053500011F00C944A350E949AB20C9478350835B5
:10536000F2E01F0711F40C94A734B4F4073F31E0C6
:10537000130711F40C94853414F40C948234083F10
:1053800091E0190711F40C948E340C30124011F492
:105390000C949F340C944A35003AF3E01F0709F44B
:1053A000C2C17CF40B3532E0130711F40C94AA341B
:1053B0000335134011F00C944A350E9406650C9495
:1053C0007835073E93E0190711F40C942235093E15
:1053D000134011F40C9430350C944A3580E50E944A
:1053E000AD46882329F00E943A446B017C0103C03A
:1053F000C12CD12C760183E50E94AD46882361F053
:105400000E94314620E030E04AE754E40F942F4DEB
:105410000F9444556B017C010E9468AD8091260475
:1054200090912704009721F061E00F94A13705C007
:1054300060E088EB97E00F940F3740E0C701B601BA
:105440000E9493430E9403F90C94783580912B04B9
:1054500084FF02C00C94003680912D0487FF02C0A7
:105460000C94003680912E04837011F00C94003659
:105470000C941D3689EE97E00E94463B83E892E14A
:105480000E94BEE78BE1E3E8F2E1DE0111960190B4
:105490000D928A95E1F760E070E0CE0101960E94DE
:1054A00080D8CE0101960E94EFEA8AED97E00E9433
:1054B000463B0C9478350E945CD70C947835E0918B
:1054C0002604F09127048081882329F0803209F492
:1054D00010823196F8CF60E08091260490912704E5
:1054E0000E948FD50C9478350E94D03A882321F001
:1054F0000E94AED60E940BB80E9403F90C94783536
:105500008091501482FF03C08B7F809350140E94BF
:105510002FB80E9403F90C9478358091501483FDC4
:1055200002C00C94783583E50E94AD4681110C943D
:105530002C360C94783583E40E946446882319F154
:1055400084E098E00E94463B80912D12882391F0E0
:10555000BE016F5F7F4F8AE292E10E947FEA8E0177
:105560000F5F1F4FF80181918F01882339F00E944E
:10557000343BF8CF8AEF97E00E94463B8AE00E94D6
:10558000343B0C9478358091501482FF21C083E124
:1055900098E00E94463B60914C1470914D148091AC
:1055A0004E1490914F144AE00E94523C8FE20E94A8
:1055B000343B609148147091491480914A14909141
:1055C0004B144AE00E94523C0E94133E0C947835E2
:1055D00085E298E00E94463B0C9478358091260441
:1055E000909127040E9441D50C94783580915014F5
:1055F0008E7F809350140C9478358091501483FDE5
:1056000002C00C9478350E949BF88091501483FD61
:1056100002C00C9478354091260450912704BE01B5
:10562000645E7F4F80E00F944C188C01009711F45A
:105630000C9478356C8D7D8D19821C8222E0AC0132
:10564000CE0101960E94E4EC811102C0F12C14C03D
:10565000CE0101960F94BA178823C1F361E0CE0101
:1056600001960E9463EA009789F325EEFC012083EE
:105670001C820E94E1E4F82ECE0101960E94EFEA1E
:10568000B801FF2089F08EE498E00E94553B8AE043
:105690000E94343B10924C1410924D1410924E14F0
:1056A00010924F140C94783586E398E00E94553B95
:1056B0008FE290E10E94463B0C9478358091501423
:1056C00082FD0E9468AD8091501483FD02C00C944D
:1056D000783560E080E50E94D546182F682F8091CC
:1056E0002604909127040E948FD583E50E94AD4641
:1056F000882381F00E94F945AB01BC0140934C1412
:1057000050934D1460934E1470934F148AE292E1BB
:105710000E9427E70E94AED611110C9478350E94A2
:105720000BB80C9478352091260430912704909181
:105730005014926090935014C9010E9441D50C946A
:1057400078350E94BCB77B018C0120E831E541E04F
:1057500050E00F941F53C9016DE671E00F94675339
:105760004B015C01C801B70120E13EE040E050E0A0
:105770000F941F53CA01B90128E130E040E050E026
:105780000F941F53762E672EC62ED72EBCE32B2EDA
:10579000312C412C512CC801B701A20191010F9469
:1057A0001F53F62EE72ECA01B901A20191010F94F1
:1057B0001F53CB018E010F5F1F4F8114910499F08D
:1057C000EF92FF927F936F936F927F92BF92AF920F
:1057D0009F928F928CE598E09F938F931F930F93E6
:1057E0000F94614C13C0A114B104B1F0EF92FF9279
:1057F0007F936F936F927F92BF92AF9280E698E013
:105800009F938F931F930F930F94614C0FB6F8944F
:10581000DEBF0FBECDBF30C0CD2879F0EF92FF9232
:105820007F936F936F927F9284E698E09F938F931C
:105830001F930F930F94614CE9CF892B69F0EF927E
:10584000FF927F936F9388E698E09F938F931F93C7
:105850000F930F94614CDACFEF92FF928CE698E0B1
:105860009F938F931F930F930F94614C0F900F9002
:105870000F900F900F900F9060E0C8010F94A13728
:105880000E946C3BB80180E798E00E94553B8AE09B
:105890000E94343B0C9478356DE070E080E50E9406
:1058A000BA468C0197FF02C00C947835E82E60E070
:1058B00089E40E94D54681110C943D36802F0E94C8
:1058C000A83A8111B8C50C943D360E9457950C94A6
:1058D00078350E940BB80C9478350E9444B80C942B
:1058E00078358091120C83FF02C00C94783589E4DE
:1058F0000E94AD46882311F40C9474360E94094628
:1059000090E01816190614F481E090E026E0289F34
:10591000F001299FF00D1124EF5AFA4F80819181F7
:105920000C947E368091120C83FF02C00C94783563
:1059300089E40E94AD46082F882311F40C94833625
:105940000E94094690E01816190614F481E090E0D0
:1059500026E0289FF001299FF00D1124EF5AFA4FFD
:105960008081918110E00C9493360E948B8F182FC8
:1059700087FD0AC08DE39BE10E94463B812F0E9478
:1059800002DC8AE00E94343B8CA180934E030C948D
:10599000673860E080E50E94C94681110C94783533
:1059A00081E40E946446882329F06091EA05062F6D
:1059B00010E002C00FEF10E089E40E94AD4688239A
:1059C00099F00E94094690E01816190614F481E037
:1059D00090E026E0289FF001299FF00D1124EF5A56
:1059E000FA4F0481158108C083E50E94AD468823E3
:1059F00019F00E94F9458B01B8010F3F110519F00C
:105A000010F06FEF70E06093EA050C94783560E079
:105A100080E50E94C94681110C9478351092EA0500
:105A20000C9478358EE40E94AD46882311F40C94D2
:105A300078350E94F9456093B3047093B404809361
:105A4000B5049093B6040C94783583E50E946446BF
:105A5000882331F060E083E50E94C9468093120CF0
:105A60000E946C3B83EB98E00E94463B8091120CB5
:105A7000882369F1A7E8EA2EACE0FA2E00E010E0F6
:105A800020E08091120C90E0A0E0B0E0002E04C075
:105A9000B695A795979587950A94D2F780FF0EC083
:105AA000DD24D394D20E222319F08CE20E94343BE1
:105AB000F701859194910E94463B2D2D0F5F1F4F5A
:105AC00092E0E90EF11C05301105D9F657CD8FEAA9
:105AD00098E052CD10921816109262020C9478350C
