:100000000C9432200C9463200C9463200C94632095
:100010000C9463200C9463200C9463200C94632054
:100020000C9463200C9463200C9463200C94632044
:100030000C9463200C94FEC90C9463200C946320F0
:100040000C9463200C946E8E0C9463200C946320AB
:100050000C9463200C9463200D9472230C94B4C907
:100060000C9463200C94A0490C9496490C94632042
:100070000C9463200C9463200C9463200C946320F4
:100080000C9463200C9463200C9463200C946320E4
:100090000C9463200C9463200C9463200C946320D4
:1000A0000C9463200C9463200C9463200C946320C4
:1000B0000C9463200C9463200C9463200C946320B4
:1000C0000C9463200C9463200C9463200C946320A4
:1000D0000C9463200C9463200C9463200C94632094
:1000E0000C9463203BE36DE1A6E177E3A6E1A6E192
:1000F000A6E1A6E1A6E1A6E1A6E1A6E1A6E1A6E1C8
:10010000A6E1A6E1A6E1A6E1A6E1A6E1A6E1A6E1B7
:10011000A6E1A6E1A6E1A6E1A6E1A6E1A6E1A6E1A7
:1001200071E3A6E1A6E1A6E1A6E1A6E1A6E1A6E1CA
:10013000A6E14AE3A6E1A6E1A6E1A6E1A6E1A6E1E1
:10014000A6E1A6E1A6E1A6E18EE3A3E13F01C1019C
:100150001B015B0261016F02F900A501F100410280
:1001600055027F01170121016F0251020D01650146
:1001700007020302BF014901B7018101A9016F0113
:10018000B1012501E9002102DB0161028101850144
:1001900093011D017B02B301CB014702ED01DF0199
:1001A00053011901E101EB00F101230105A84CCD38
:1001B000B2D44EB93836A9020C50B9918688083CA1
:1001C000A6AAAA2ABE000000803F0D945F0A0C94E4
:1001D000788C0D9467140D94DE170C94AE8C0C94EF
:1001E00081A90D9497100C949C850C9439F50C946E
:1001F00027AD0D948D100C94FDF10C949FC10D94BE
:10020000B01F0C9429AA0C9475840C943E6B0C942A
:1002100035F50C94A28C0C9468850D94B7100C9451
:1002200035650C9441650C94B0C70C94098E0D94FF
:10023000A9100D94CC170D9478100D94A8140C945B
:10024000C0840D94AD100D94C9170D945D140C94D9
:1002500089A90C94FD8C0C9460AB0C94FF850D94D3
:1002600010430C94FB640C9455F50C941A690D948E
:100270004A0B0C949FFE0C9431670C948EE30D9402
:1002800086100D94C40C0C94D9840C9462A90C941F
:100290007E8C0D942F140C9481850C94F7E00C94B3
:1002A00042690C94A8A90D94C0170C94BA8C0C94B4
:1002B00043850C94908C0C94AED10C9483350C94A3
:1002C0002DAD0D9482100C94A0C00D94BB100C9415
:1002D0004AE30C947F350C94FAE00C94E9BF0D943A
:1002E0004B140C94A88C0C941CF20C94A3F30C9457
:1002F00010650C948BD10C9431850C9477E30D949C
:10030000A5100D94B2140C9454A20D9494140C9452
:1003100036670C94D2880C9451F50C9405850C9496
:10032000C4D10C9484C90D949E140C94FDE00C94DB
:10033000A6E10C94968C0C940B6C0C9480350C9468
:1003400029AD0C9425F20C944AAA0D9491100C94AA
:1003500041840D9443140C946FC40C9458840C94F1
:1003600018850D9453140D94B1170C94A6C00D94D8
:1003700039140C944DF50D94CA0C0C942A840D94E8
:1003800025140D9489100C94A1C10C9431F50C9492
:100390008D850C9434C00D94B7170C94D5D20C9461
:1003A0009FA10C9413C40C9442870C94B8D60C945F
:1003B000B48C0D94C70C0D9480140C9451F40D94CE
:1003C000BD170D94C3170C94BA850C949AC20C9463
:1003D00087F80D942E430C94C9850D94BA170C948C
:1003E000C08C0D94C6170C9427670C9454D40C94AD
:1003F00055850C940B650C9446870C94DFF70C9490
:10040000EE8C0C9439690D9420140C9434A00D9446
:100410001B140C94D6680C945A840C947D650C942F
:10042000D6D50C94C2D10C941AA40C94B4A70C94F5
:100430006DE10C9418AD0C941BEA0C9415650C94AA
:10044000A7840D9471140C9450A20C94A3C50C9421
:100450002BAD0C942C670C94F5BF0C94F3850C9485
:1004600067C40C9406650C94E3500C948BFE0C94BA
:100470004EA20C94848C0C94F2E90C94DF8C0C94B6
:1004800052A20D949B100C945AC90C949C8C0D9400
:10049000B4170C94C7A90C943B650C94A5850C94D7
:1004A0002F650D94B3100D9471020D949F100C9450
:1004B0003E670C94CFD20D947C100C943BE30C94CB
:1004C000C0D10D948A140C948A8C0C94698A0C9473
:1004D0004E880C9445F50C94A3E10C94F2840D9491
:1004E000C0100C94B7D10C9459F50C9401870C945E
:1004F00056A20C948E840D94D1170C9449F50C944B
:1005000071E30C94DEF20C9441F50C94D8850C94B4
:10051000D4D10C942DF20C94E7850C943DF54E410A
:100520004E494E495459494E46CDCCCC3D0AD7236D
:100530003C17B7D13877CC2B329595E6241FB14FB5
:100540000A000020410000C84200401C4620BCBEFA
:100550004CCA1B0E5AAEC59D7400407A10F35A0067
:10056000A0724E18090010A5D4E80000E8764817DC
:100570000000E40B54020000CA9A3B000000E1F5C1
:1005800005000080969800000040420F000000A087
:100590008601000000102700000000E803000000B2
:1005A000006400000000000A0000000000010000DC
:1005B0000000002C76D888DC674F0823DFC1DFAE4F
:1005C00059E1B1B796E5E3E453C63AE65199769618
:1005D000E8E6C28426EB898C9B62ED407C6FFCEFE1
:1005E000BC9C9F40F2BAA56FA5F490055A2AF75C0F
:1005F000936B6CF9676DC11BFCE0E40D47FEF520C1
:10060000E6B500D0ED902E03009435770500808488
:100610001E080000204E0A000000C80C333333339C
:100620000F986E12831141EF8D2114893BE6551608
:10063000CFFEE6DB18D1844B381BF77C1D901DA440
:10064000BBE424203284725E228100C9F124ECA133
:10065000E53D27434F4D4D554E49434154494F4E7B
:100660000044525952554E004552524F5253004980
:100670004E464F004543484F00446F726D696E64AB
:100680006F2E2E2E004D65736820706F696E74207A
:1006900063616E6E6F74206265207265736F6C7635
:1006A00065640A00436C6971756520706172612030
:1006B0007265746F6D61720053656D206D6F766940
:1006C0006D656E746F00456E642066696C65206CA4
:1006D0006973740A00426567696E2066696C6520FB
:1006E0006C6973740A00286E6F2066696C65290056
:1006F00043757272656E742066696C653A200053AA
:1007000044207072696E74696E6720627974652026
:10071000004E6F74205344207072696E74696E6766
:100720000A002569792025696420256968202569E2
:100730006D20256973005072696E742074696D654F
:100740003A2000496E76616C69642050696E204DD4
:100750006F64650A00526573667269616E646F2E1C
:100760002E2E004171756563656E646F2E2E2E000E
:1007700045202553006F66660044454255473A00C0
:100780004D3131322053687574646F776E004D318E
:1007900031332053005A394D332D4147204F4646BF
:1007A0002E004348414D4245525F54454D504552FD
:1007B0004154555245004D4F54494F4E5F4D4F44A3
:1007C000455300544845524D414C5F50524F54459B
:1007D0004354494F4E004155544F5245504F525487
:1007E0005F53445F5354415455530050524F4D5042
:1007F000545F535550504F525400454D4552474554
:100800004E43595F50415253455200434153455F57
:100810004C494748545F4252494748544E45535308
:1008200000544F47474C455F4C4947485453005389
:100830004F4654574152455F504F5745520042551D
:10084000494C445F50455243454E54004C45564533
:100850004C494E475F44415441005A5F50524F4209
:1008600045004155544F4C4556454C005052494E59
:10087000545F4A4F420050524F4752455353004134
:1008800055544F5245504F52545F54454D500056A9
:100890004F4C554D45545249430042494E415259DF
:1008A0005F46494C455F5452414E534645520053B2
:1008B000455249414C5F584F4E5F584F464600469F
:1008C00049524D574152455F4E414D453A4D617237
:1008D0006C696E20322E302E352E332028476974F5
:1008E0004875622920534F555243455F434F444555
:1008F0005F55524C3A68747470733A2F2F6769745D
:100900006875622E636F6D2F4D61726C696E4669FA
:10091000726D776172652F4D61726C696E205052F5
:100920004F544F434F4C5F56455253494F4E3A3107
:100930002E30204D414348494E455F545950453A69
:100940005A394D332D41472045585452554445524C
:100950005F434F554E543A3120555549443A6365EB
:100960006465326132662D343161322D343734386A
:100970002D396231322D6335356336326633363781
:1009800066660A002F2F20004D31343520533C6914
:100990006E6465783E206F7574206F662072616E9C
:1009A00067652028302D31290A00206C696D697433
:1009B000656420746F2000204D61782000416363DE
:1009C000656C65726174696F6E003F4A206F757463
:1009D000206F662072616E67652028302E303120CE
:1009E000746F20302E33290A0046523A0020466C9C
:1009F0006F773A200050726F74656374656420509D
:100A0000696E0A00496E76616C696420657874725B
:100A1000756465720A0020643A0020693A0020700B
:100A20003A0046696C616D656E742072756E6F7503
:100A30007420004D34323120696E636F72726563C9
:100A40007420706172616D65746572207573616781
:100A5000650A00416C74657261C3A7C3A36F20610E
:100A6000706C6963616461004572723A20546F6F03
:100A7000206661722100546F6F2066617220667279
:100A80006F6D207265666572656E636520706F6953
:100A90006E740A00454550524F4D204F4B0A00508E
:100AA0006F7765722D6C6F7373207265636F7665F7
:100AB00072792000446F6E65207072696E74696E81
:100AC000672066696C650A004D3737004D33310089
:100AD00074066F06680661065306206D61783A2039
:100AE00000206D696E3A20006F6B00526573656E71
:100AF000643A20004573667269616E646F206D65AB
:100B000073612E2E2E004171756563656E646F20D2
:100B10006D6573612E2E2E0023646566696E6520F7
:100B200044454641554C545F004B6420004B6920BE
:100B3000004B702000504944204175746F74756EED
:100B4000652066696E69736865642120507574203C
:100B5000746865206C617374204B702C204B692085
:100B6000616E64204B6420636F6E7374616E747386
:100B70002066726F6D2062656C6F7720696E746F8E
:100B800020436F6E66696775726174696F6E2E6857
:100B90000A00504944204175746F74756E65206673
:100BA00061696C6564212074696D656F75740A00F4
:100BB0000A20436C617373696320504944200A0022
:100BC000204B643A2000204B693A2000204B703AB9
:100BD00020000A204E6F206F76657273686F6F7405
:100BE0000A002054753A2000204B753A20002064FA
:100BF0003A200020626961733A2000504944204144
:100C000075746F74756E652073746172740A005028
:100C10004944204175746F74756E65206661696C16
:100C20006564212054656D7065726174757265200C
:100C3000746F6F20686967680A00504944204175E5
:100C4000746F74756E65206661696C6564212042FD
:100C50006164206578747275646572206E756D626A
:100C600065720A005049442044656275672000455A
:100C700072723A207574663820666F6E74206E6FDB
:100C80007420696E697469616C697A65642E00000C
:100C90000C0D00FE07022603BC01FFFE0AFE08FE43
:100CA00005080806000040F0C888889878100508F4
:100CB00008060000C0F88888888888F805050506B9
:100CC00000012030F830200508080600002070F8E8
:100CD00020202020E00509090600FF2070A8A8B800
:100CE00088887020050606060001E08CEA8C8A0AD6
:100CF0000509090600FFF8A88888888888A8F805EB
:100D00000A0A0600FE205050505088A8A888700398
:100D1000030306000340A040FFFFFFFFFFFFFFFFAC
:100D2000FFFFFFFFFFFFFFFFFFFFFFFFFFFF0000D1
:100D3000000605FF01070706020080808080800012
:100D400080030303060105A0A0A005060606000017
:100D500050F85050F8500509090600FF2070A8A06F
:100D60007028A87020050707060000C8C81020409A
:100D7000989805070706000040A0A040A8906801C9
:100D800003030602058080800309090601FF204055
:100D9000408080804040200309090601FF804040D8
:100DA00020202040408005070706000020A8702072
:100DB00070A8200505050600012020F82020020368
:100DC000030601FFC04080050101060003F802028E
:100DD00002060100C0C00507070600000810102029
:100DE000404080050707060000708898A8C88870F2
:100DF00003070706010040C040404040E0050707E8
:100E0000060000708808102040F80507070600005B
:100E1000F8081030088870050707060000103050E9
:100E200090F81010050707060000F880F008088801
:100E300070050707060000304080F08888700507BD
:100E400007060000F80810102020200507070600FC
:100E50000070888870888870050707060000708811
:100E60008878081060020505060100C0C000C0C0F7
:100E70000206060601FFC0C000C04080030505064B
:100E800001012040804020050303060002F800F81D
:100E90000305050601018040204080050707060084
:100EA00000708810202000200507070600007088C9
:100EB000B8A8B88070050707060000708888F88811
:100EC0008888050707060000F04848704848F00584
:100ED0000707060000708880808088700507070675
:100EE0000000F04848484848F0050707060000F8A9
:100EF0008080F08080F8050707060000F88080F009
:100F000080808005070706000070888080988870C0
:100F1000050707060000888888F88888880307077F
:100F2000060100E04040404040E0050707060000A1
:100F3000381010101090600507070600008890A078
:100F4000C0A0908805070706000080808080808010
:100F5000F805070706000088D8A88888888805074C
:100F6000070600008888C8A8988888050707060033
:100F70000070888888888870050707060000F08858
:100F800088F080808005070706000070888888A8A0
:100F90009068050707060000F08888F0A090880593
:100FA000070706000070888070088870050707062C
:100FB0000000F820202020202005070706000088D8
:100FC00088888888887005070706000088888888D0
:100FD00050502005070706000088888888A8A85078
:100FE00005070706000088885020508888050707F5
:100FF00006000088885020202020050707060000F2
:10100000F80810204080F80309090601FFE08080FD
:101010008080808080E00507070600008040402037
:101020001010080309090601FFE0202020202020DD
:1010300020E0050303060005205088050101060095
:10104000FEF80303030601058040200505050600A0
:101050000070087888780507070600008080F0880F
:101060008888F005050506000070808088700507F7
:1010700007060000080878888888780505050600B6
:10108000007088F08070050707060000304840E0D7
:101090004040400507070600FE7088888878087081
:1010A0000507070600008080F08888888803070706
:1010B0000601004000C0404040E00409090601FE6E
:1010C0001000301010101090600507070600008017
:1010D000808890E09088030707060100C0404040E8
:1010E0004040E0050505060000D0A8A8A8A8050511
:1010F00005060000B0C88888880505050600007050
:10110000888888700507070600FEF0888888F080C8
:10111000800507070600FE78888888780808050596
:1011200005060000B0C8808080050505060000782F
:10113000807008F00507070600002020F820202016
:1011400018050505060000888888986805050506C5
:10115000000088888850200505050600008888A8BA
:10116000A85005050506000088502050880507078F
:101170000600FE888888502040800505050600008E
:10118000F8102040F80309090601FF204040408084
:10119000404040200109090602FF80808080808055
:1011A0008080800309090601FF80404040204040C4
:1011B000408005030306000248A890FFFFFFFFFFE1
:1011C000FFFFFFFFFFFFFFFFFFFFFFFFFFFFFFFF2F
:1011D000FFFFFFFFFFFFFFFFFFFFFFFF0000000615
:1011E00005FF0107070602008000808080808005DF
:1011F00007070600FF2070A8A0A8702005070706B3
:101200000000304840E04048B0050505060000A851
:10121000508850A80507070600008850F820F820DD
:10122000200107070602008080800080808004087B
:101230000806010070806090906010E003010106D4
:101240000107A00607070600007884B4A4B48478D8
:1012500003050506010460A06000E0050505060021
:10126000002850A05028050303060001F8080803D1
:101270000101060103E00607070600007884B4A414
:10128000A48478050101060007F80404040601059A
:10129000609090600507070600002020F8202000DD
:1012A000F803050506010440A02040E003050506FB
:1012B0000104C0204020C003030306010520408034
:1012C0000507070600FE88888898E88080050808DA
:1012D00006000078E8E8E8682828280202020602EA
:1012E00003C0C00302020601FE20C003050506017B
:1012F0000440C04040E003050506010540A0400051
:10130000E0050505060000A0502850A0050A0A06C1
:10131000000040C048506050B0507810050A0A06DE
:10132000000040C048506050A8081038050A0A065E
:101330000000C0204830E050B05078100507070684
:10134000000020002020408870050A0A06000040A6
:101350002000708888F8888888050A0A060000102E
:101360002000708888F8888888050A0A060000200E
:101370005000708888F8888888050A0A0600006886
:10138000B000708888F88888880509090600005030
:1013900000708888F8888888050A0A0600002050AE
:1013A00020708888F888888805070706000078A0DC
:1013B000A0F0A0A0B80509090600FE708880808012
:1013C00088701060050A0A060000402000F880803E
:1013D000F08080F8050A0A060000102000F88080DE
:1013E000F08080F8050A0A060000205000F880808E
:1013F000F08080F80509090600005000F88080F0B0
:101400008080F8030A0A060100804000E040404066
:101410004040E0030A0A060100204000E04040404E
:101420004040E0030A0A06010040A000E0404040BE
:101430004040E0030909060100A000E040404040B0
:1014400040E0050707060000704848E84848700576
:101450000A0A06000068B0008888C8A8988888052D
:101460000A0A060000402000708888888888700575
:101470000A0A060000102000708888888888700595
:101480000A0A060000205000708888888888700545
:101490000A0A06000068B00070888888888870058D
:1014A0000909060000500070888888888870050542
:1014B0000506000188502050880509090600FF082C
:1014C0007098A8A8A8C87080050A0A0600004020E5
:1014D0000088888888888870050A0A06000010201D
:1014E0000088888888888870050A0A0600002050CD
:1014F00000888888888888700509090600005000DF
:1015000088888888888870050A0A060000102000EC
:101510008888502020202004070706010080E090E2
:101520009090E080050707060000708890A09088E2
:10153000B00508080600004020007008788878058B
:101540000808060000102000700878887805080850
:10155000060000205000700878887805080806000A
:101560000068B0007008788878050707060000500A
:101570000070087888780508080600002050207060
:1015800008788878050505060000702870A07805A1
:1015900007070600FE70888088701060050808063E
:1015A00000004020007088F08070050808060000E8
:1015B0001020007088F08070050808060000205098
:1015C000007088F0807005070706000050007088E2
:1015D000F08070030808060100804000C0404040D1
:1015E000E0030808060100204000C0404040E0033E
:1015F000080806010040A000C0404040E003070783
:10160000060100A000C0404040E0050909060000B6
:1016100050205008788888887005080806000068FF
:10162000B000B0C88888880508080600004020007F
:1016300070888888700508080600001020007088EF
:101640008888700508080600002050007088888887
:101650007005080806000068B0007088888870056A
:101660000707060000500070888888700505050689
:1016700000012000F800200505050600007898A864
:10168000C8F0050808060000402000888888887097
:101690000508080600001020008888888870050862
:1016A0000806000020500088888888700507070613
:1016B000000050008888888870050A0A0600FE101D
:1016C0002000888888502040800509090600FE8097
:1016D00080F0888888F080800509090600FE5000A7
:1016E000888888502040804572726F7220777269B6
:1016F00074696E6720746F20454550524F4D210A22
:1017000000627573793A2070617573656420666F45
:101710007220696E7075740A00627573793A207070
:10172000617573656420666F7220757365720A0057
:10173000627573793A2070726F63657373696E674F
:101740000A004D363030005041524F552E20005087
:1017500072696E7465722073746F70706564206452
:10176000756520746F206572726F72732E204669E2
:101770007820746865206572726F7220616E6420D3
:10178000757365204D39393920746F207265737413
:101790006172742E202854656D7065726174757263
:1017A000652069732072657365742E2053657420FB
:1017B00069742061667465722072657374617274F5
:1017C000696E67290A004E6F20436865636B737505
:1017D0006D2077697468206C696E65206E756D6226
:1017E00065722C204C617374204C696E653A200040
:1017F000636865636B73756D206D69736D61746388
:10180000682C204C617374204C696E653A20004C42
:10181000696E65204E756D626572206973206E6F0A
:1018200074204C617374204C696E65204E756D6236
:1018300065722B312C204C617374204C696E653AB3
:1018400020004D31313000534420726561642065C1
:1018500072726F720A002121204B494C4C20636147
:1018600075736564206279204B494C4C2062757415
:10187000746F6E2F70696E0A002121204B494C4C09
:101880002063617573656420627920746F6F206DC9
:1018900075636820696E6163746976652074696D2B
:1018A00065202D2063757272656E7420636F6D6D97
:1018B000616E643A20004661766F722072657365CE
:1018C00074617200494D50524553534F524120505C
:1018D00041524F550025533A202553005041524163
:1018E000444120444520454D455247C38A4E434913
:1018F00041005072696E7465722068616C74656431
:101900002E206B696C6C28292063616C6C656421E6
:101910000A006563686F3A004572726F723A003C64
:101920003D38033637260E2E303E12131A1C18246B
:10193000221E28271608440A064308090600014209
:10194000696C696E656172204C6576656C696E675D
:1019500020477269643A0A004F46460A00466164AD
:1019600065204865696768742000426564204C659D
:1019700076656C696E6720004661696C65642074E9
:101980006F20656E61626C6520426564204C6576EF
:10199000656C696E670A00496E76616C6964206DDA
:1019A0006573682E0A0020204D61783A20002020BF
:1019B0004D696E3A2000536F667420656E647374CF
:1019C0006F70733A2000252900257C00203B2043BE
:1019D000757272656E74205A00203B20456E64005B
:1019E000203B205374617274004772616469656EB4
:1019F00074204D6978200052616E646F6D204D69CE
:101A0000782000507265737320627574746F6E2055
:101A1000746F2068656174206E6F7A7A6C650A0055
:101A20004D32342053256C642054256C64004739B2
:101A3000322E392045257300473120462564004762
:101A400039322E39205A2573004731205A3020462A
:101A500032303000473120582573205925732046F5
:101A600033303030004D34323020532569205A2530
:101A700073004D3130362050256920532569004DC3
:101A800031303920532569004D31393020532569D3
:101A9000004D32303020442573004739322E392032
:101AA00045305A300A47315A320A47323852305894
:101AB00059004D343230205330205A300020496EC6
:101AC00076616C6964206578747275646572200053
:101AD00020496E76616C696420452073746570706E
:101AE0006572200020452073746570706572206EE9
:101AF0006F74207370656369666965640A003F00EE
:101B000043616E63656C004D6F76696D656E746FD1
:101B1000004465736C696761646F004C6967616458
:101B20006F00562D746F6F6C73205765726520526D
:101B300065736574004379636C65204D6978005264
:101B40006573657420562D746F6F6C7300436F6DF1
:101B50006D697420562D746F6F6C204D6978004349
:101B60006F6D706F6E656E74203D004163746976B1
:101B70006520562D746F6F6C0052616E646F6D201E
:101B80004D6978003A2064697361626C65003A209F
:101B9000656E61626C6500536574204D6978004D17
:101BA0003834004465736162696C69742E206D6F0E
:101BB000746F726573004732380A4D3438205031E3
:101BC00030004D34382050726F6265205465737454
:101BD0000053756176697A617220616C7475726107
:101BE000004E6976656C61C3A7C3A36F204D657312
:101BF00061004732380A473239004E6976656C61B8
:101C000072204D657361004E6976656C6172204388
:101C1000616E746F73004732380049722061206F23
:101C2000726967656D2058595A002062797465732E
:101C30003B20637263200053657474696E67732080
:101C400053746F726564202800454550524F4D20F3
:101C50006461746173697A65206572726F722E0AAD
:101C6000002073746F7265642073657474696E67A5
:101C70007320726574726965766564202800202877
:101C800063616C63756C6174656429210A002021AD
:101C90003D2000454550524F4D20435243206D6931
:101CA000736D61746368202D202873746F7265648E
:101CB000292000496E6465783A2000204D61726CDD
:101CC000696E3D563737290A00454550524F4D2021
:101CD00076657273696F6E206D69736D6174636888
:101CE0002028454550524F4D3D0000009A430000CA
:101CF0009A430000B94347312058313535205931D6
:101D000035342046393030300A4731205A332046A6
:101D10003130300050726F62696E6720506F696EAB
:101D2000740025532025692F25690050726F626960
:101D30006E67206D65736820706F696E7420002077
:101D40002844525952554E29004732392041757462
:101D50006F20426564204C6576656C696E67003F54
:101D600020284C2C522C462C4229206F7574206F51
:101D70006620626F756E64732E0A003F28562965CF
:101D800072626F7365206C6576656C20696D706C2E
:101D900061757369626C652028302D34292E0A0024
:101DA000426164205A2076616C75650A004E6F208E
:101DB00062696C696E65617220677269640A0044C9
:101DC0006576696174696F6E0025533A202573004A
:101DD0005374616E646172642044657669617469EC
:101DE0006F6E3A20002052616E67653A20004D65A3
:101DF000616E3A200046696E6973686564210A0065
:101E00002072616E67653A2000207369676D613AE0
:101E10002000206D65616E3A20003A207A3A200059
:101E2000206F662000476F696E6720746F3A2058F4
:101E30000043570A00206469723A0020616E676CA3
:101E4000653A005374617274207261646975733A03
:101E5000004D343820506F696E740025533A2025A8
:101E6000642F256400506F736974696F6E696E67C3
:101E7000207468652070726F62652E2E2E0A003FF6
:101E80004E756D626572206F66206C6567732069A0
:101E90006E206D6F76656D656E74206E6F74207048
:101EA0006C61757369626C652028302D3135292E7F
:101EB0000A003F2028582C5929206F7574206F661E
:101EC00020626F756E64732E0A003F53616D706CF3
:101ED000652073697A65206E6F7420706C6175730C
:101EE00069626C652028342D3530292E0A004D3466
:101EF00038205A2D50726F6265205265706561748A
:101F00006162696C69747920546573740A00416375
:101F100063656C65726174696F6E3A205000204D84
:101F200039322058004361727265676172206D6DAD
:101F300000446573636172722E206D6D004469C345
:101F4000A26D6574726F2046696C2E0045787472BC
:101F50007573C3A36F20656D206D6DC2B3004D33E3
:101F600030332055312045256920532569005049DB
:101F700044204175746F74756E65202A0050494481
:101F80002D44202A005049442D49202A005049441C
:101F90002D50202A00000040C0000080C100000039
:101FA0000000004842000048420000804002020455
:101FB0000000A0400000A0400000004000809B43C3
:101FC0000000A2430000B943FFFFFF000000010032
:101FD000000001000080005555550000004000330E
:101FE000333300AAAA2A004992240000002000C727
:101FF000711C0099991900D1451700555515003BE2
:10200000B113002449120011111100000010000F3B
:102010000F0F00E3380E0043790D00CCCC0C00C349
:10202000300C00E8A20B0064210B00AAAA0A007081
:102030003D0A009DD80900427B090092240900DC7A
:10204000D30800888808001042080000000800F04B
:10205000C107008787070075500700711C07003E05
:10206000EB0600A1BC0600699006006666060070DB
:102070003E06006118060017F4050074D105005BE8
:10208000B00500B290050062720500555505007854
:10209000390500B81E0500050505004EEC04008753
:1020A000D40400A1BD040090A7040049920400C11B
:1020B0007D0400EE690400C7560400444404005C3B
:1020C0003204000821040041100400000004003F15
:1020D000F00300F8E0030026D20300C3C30300CCE2
:1020E000B503003AA803000A9B0300388E0300C022
:1020F0008103009F750300D0690300505E03001D3B
:1021000053030034480300913D03003333030016AA
:10211000290300381F030097150300300C03000348
:102120000303000BFA020049F10200BAE802005C66
:10213000E002002DD802002DD0020059C80200B0E4
:10214000C0020031B90200DAB10200AAAA0200A05E
:10215000A30200BC9C0200FA9502005C8F0200DF23
:1021600088020082820200457C0200277602002756
:10217000700200436A02007C640200D05E02003FED
:10218000590200C8530200FFFDFCFAF8F6F4F2F021
:10219000EEECEAE9E7E5E3E1E0DEDCDAD9D7D5D435
:1021A000D2D0CFCDCBCAC8C7C5C3C2C0BFBDBCBAD1
:1021B000B9B7B6B4B3B2B0AFADACAAA9A8A6A5A43E
:1021C000A2A1A09E9D9C9A99989795949392908F86
:1021D0008E8D8B8A8988878684838281807F7E7DAD
:1021E0007B7A797877767574737271706F6E6D6CB7
:1021F0006B6A696867666564636261605F5E5D5CA7
:102200005B5A5958585756555453525150504F4E87
:102210004D4C4B4A4A494847464645444342424151
:10222000403F3E3E3D3C3B3B3A393838373635350A
:10223000343332323130302F2E2E2D2C2B2B2A29B5
:102240002928272726252524232322212120201F52
:102250001E1E1D1C1C1B1B1A1919181817161615E3
:102260001514131312121111100F0F0E0E0D0D0C69
:102270000C0B0A0A090908080707060605050404E5
:10228000030302020100005761726E696E673A2013
:10229000486F6D696E672042756D7020446976697C
:1022A000736F72203C20310A0024F4D43050C38E66
:1022B00020C2A24017828B7011127A910D816CD9C5
:1022C0000AA861E108C7586607615143061E4B5DC5
:1022D00005C145A7041A411104093D98037139311C
:1022E000034036DB0265339102D4305402802E1D48
:1022F00002632CEE01752AC501B028A001102781C8
:10230000018F2564012B244B01E0223401AC211FF5
:10231000018D200D01801FFC00841EED00971DDF44
:1023200000B81CD200E61BC600201BBC00641AB219
:1023300000B219A8000A19A0006A189900D11791D3
:102340000040178B00B516840031167E00B3157956
:10235000003A157300C7146F0058146A00EE136634
:10236000008813630025135E00C7125B006C1257D0
:102370000015125400C111510070114F0021114B72
:1023800000D61049008D104700461044000210424C
:1023900000C00F4000800F3E00420F3C00060F3B84
:1023A00000CB0E3800930E37005C0E3500270E343C
:1023B00000F30D3200C10D3100900D3000600D2E84
:1023C00000320D2D00050D2C00D90C2B00AE0C2970
:1023D00000850C29005C0C2700350C27000E0C260C
:1023E00000E80B2400C40B2400A00B23007D0B236A
:1023F000005A0B2100390B2100180B2000F80A1F8E
:1024000000D90A1E00BB0A1E009D0A1D00800A1D7D
:1024100000630A1C00470A1B002C0A1B00110A1A41
:1024200000F7091A00DD091900C4091900AB0919E0
:1024300000920917007B091800630917004C091660
:102440000036091600200916000A091500F50815BE
:1024500000E0081400CC081400B8081400A4081404
:1024600000900813007D0812006B08130058081232
:102470000046081200340811002308110012081148
:102480000001081100F0071000E0071000D007104D
:1024900000C0071000B0070F00A107100091070E41
:1024A0000083070F0074070F0065070E0057070E23
:1024B0000049070E003B070D002E070E0020070DF8
:1024C0000013070D0006070D00F9060C00ED060DC0
:1024D00000E0060C00D4060C00C8060C00BC060C7C
:1024E00000B0060C00A4060B0099060C008D060B2C
:1024F0000082060B0077060B006C060B0061060AD3
:102500000057060B004C060A0042060A0038060A6D
:10251000002E060A0024060A001A060A0010060900
:102520000007060A00FD050900F4050900EB05098E
:1025300000E2050900D9050900D0050900C7050911
:1025400000BE050900B5050800AD050800A5050990
:10255000009C050800940508008C05080084050807
:10256000007C050800740508006C05070065050877
:10257000005D050700560508004E050700470507E2
:10258000004005080038050700310507002A050747
:1025900000230507001C050600160507000F0507A8
:1025A000000805060002050700FB040600F5040705
:1025B00000EE040600E8040600E2040700DB04065F
:1025C00000D5040600CF040600C9040600C30406B3
:1025D00000BD040600B7040600B1040500AC040603
:1025E00000A6040600A00405009B0406009504054F
:1025F00000900406008A0405008504050080040696
:10260000007A04050075040500700405006B0405DC
:102610000066040500610405005C0405005704051C
:1026200000520405004D040500480405004304055C
:10263000003E0404003A040500350405003004049B
:10264000002C04050027040400230405001E0404D4
:10265000001A04040016040500110404000D04040B
:1026600000090405000404040000040400FC030441
:1026700000F8030400F4030400F0030400EC030476
:1026800000E8030400E4030400E0030400DC0304A6
:1026900000D8030400D4030400D0030400CC0304D6
:1026A00000C8030300C503030024F404D9201BC49D
:1026B0000C5C0E9804C4095F0265077101F405F90A
:1026C00000FB04B30048048700C1036900580355A8
:1026D0000003034500BE023A008402310053022A7F
:1026E000002902250004022000E4011C00C8011991
:1026F00000AF01170098011400840113007101104C
:10270000006101100051010E0043010D0036010B64
:10271000002B010B0020010B00150109000C010921
:102720000003010800FB000800F3000800EB0007AD
:1027300000E4000600DE000600D8000600D2000615
:1027400000CC000500C7000500C2000500BD000464
:1027500000B9000400B5000400B1000400AD00049D
:1027600000A9000400A5000300A20003009F0004CC
:10277000009B0003009800030095000200930003F3
:1027800000900003008D0002008B0003008800020F
:10279000008600020084000300810002007F000226
:1027A000007D0002007B000200790002007700013A
:1027B0000076000200740002007200010071000245
:1027C000006F0002006D0001006C0002006A000151
:1027D0000069000200670001006600010065000159
:1027E000006400020062000100610001006000015D
:1027F000005F0002005D0001005C0001005B000161
:10280000005A000100590001005800010057000162
:102810000056000100550001005400010053000063
:10282000005300010052000100510001005000015E
:10283000004F0001004E0000004E0001004D00015D
:10284000004C0001004B0000004B0001004A000159
:102850000049000100480000004800010047000155
:102860000046000000460001004500000045000150
:10287000004400010043000000430001004200004A
:102880000042000100410000004100010040000141
:10289000003F0000003F0001003E0000003E00013C
:1028A000003D0000003D0001003C0000003C000035
:1028B000003C0001003B0000003B0001003A00002A
:1028C000003A000100390000003900010038000022
:1028D0000038000000380001003700000037000118
:1028E0000036000000360000003600010035000010
:1028F0000035000000350001003400000034000005
:1029000000340001003300000033000000330001F8
:1029100000320000003200000032000100310000EF
:1029200000310000003100010030000000300000E4
:1029300000300001002F0000002F0000002F0000D9
:10294000002F0001002E0000002E0000002E0001CC
:10295000002D0000002D0000002D0000002D0001C2
:10296000002C0000002C0000002C0000002C0001B6
:10297000002B0000002B0000002B0000002B0001AA
:10298000002A0000002A0000002A0000002A00019E
:102990000029000000290000002900000029000093
:1029A0000029000100280000002800000028000085
:1029B0000028000000280001002700000027000078
:1029C000002700000027000000270001002600006B
:1029D000002600000026000000260000002600015E
:1029E0000025000000250000002500000025000053
:1029F0000025000000250001002400000024000044
:102A00000024000000240000002400010023000036
:102A1000002300000023000000230000002300002A
:102A2000002300000023000100220000002200001B
:102A3000002200000022000000220000002200010D
:102A40000021000000210000002100000021000002
:102A500000210000002100000021000100200000F2
:102A600000200000002000000020000000200000E6
:102A7000002000000020000000200001001F0000D6
:102A8000001F0000001F0000001F0000001F0000CA
:102A9000001F0000001F0001001E0000001E0000BB
:102AA000001E0000001E000000102800004E1C0048
:102AB00000D6110000400A00008A050000E3020071
:102AC0000079010000BE000000564465736C6F631E
:102AD000616D656E746F206D696E00566D696E0074
:102AE000566D6178204500566D6178205A00566D0C
:102AF0006178205900566D6178205800416D6178E9
:102B0000204500416D6178205A00416D617820595F
:102B100000416D61782058004D6F76696D656E7467
:102B20006F204100526574726169722041004163F7
:102B3000656C2E00446573762E204A756EC3A7C35C
:102B4000A36F0050726F62652059204F66667365EF
:102B5000740050726F62652058204F66667365740A
:102B600000452F6D6D00506173736F205A2F6D6D8E
:102B700000506173736F20592F6D6D005061737336
:102B80006F20582F6D6D00496E6974004D343238D6
:102B900000496E696369617220454550524F4D008E
:102BA000506173736F2F6D6D0050726F6265204FAF
:102BB00066667365747300417272616E636164610D
:102BC000004163656C657261C3A7C3A36F00436F67
:102BD0006D70656E736172206F726967656D00500C
:102BE00072C3B378696D6F2043616E746F00446F78
:102BF0006E65004E65787400496E646F2070617276
:102C000061206F726967656D004465732D5265744C
:102C100072616972202056004465732D526574728A
:102C2000616972206D6D0053616C746172206D6D0D
:102C30000052657472616972205600526574726147
:102C4000C3A7C3A36F204175746F6DC3A17469637B
:102C5000610020746F6F206C6F6E672065787472EE
:102C60007573696F6E2070726576656E7465640A3F
:102C7000004D69786572003A202534642E25642061
:102C80006D6D005374617274205072696E740043EC
:102C9000616E6E6F7420656E746572207375626408
:102CA00069723A2000022E2E0052657665727365B5
:102CB000204772616469656E74002020456E64204F
:102CC000562D746F6F6C00537461727420562D749E
:102CD0006F6F6C002020456E64205A3A0053746177
:102CE0007274205A3A000200000000000000000048
:102CF00000000000000000000000000000000000D4
:102D000000000000000000000000000000000000C3
:102D10000000000000000007FFC3FF870187FF0FCE
:102D2000FCFFFC1E01FF8007FFC3FF87018FFF1F11
:102D3000FCFFFC1E03FFC00000C600C7018C00188A
:102D4000000300618300C00001C600C7C18C0018E9
:102D5000000300618300C000038600C6C18C001818
:102D6000000301806300C000070600C6618C0018E4
:102D7000000301806300C0000E0600C6618C0018CD
:102D8000000301806300C0001C0600C6318FFE1FD7
:102D9000F803018063FFC000380600C6318FFE0FC4
:102DA000FC03018063FF8000700600C6198C0000E0
:102DB0000C0301FFE30C0000E00600C6198C0000C4
:102DC0000C0301FFE3070001C00600C60D8C0000E4
:102DD0000C03018063018003800600C60D8C000097
:102DE0000C03018063018007000600C6078C000009
:102DF0000C03018063018006000600C6078C0000FA
:102E00000C03018063018007FFC3FF86038FFF1F50
:102E1000FC03018063018007FFC3FF860387FF1F58
:102E2000F803018063018000000000000000000042
:102E30000000000000000000000000000000000092
:102E40000000000000000000000000000000000082
:102E50000000000000000000000000000000000072
:102E6000000000000000004D3130303020530020C1
:102E700020506C616E6E657242756666657242794D
:102E80007465733A20002046726565204D656D6F4C
:102E900072793A2000436F6D70696C65643A204125
:102EA000756720313720323032300A00204C617390
:102EB0007420557064617465643A20323032302D6C
:102EC00030372D3031207C20417574686F723A2084
:102ED00028414C455853414E44524F2C2048616C78
:102EE0006C7920290A00322E302E352E330A004DFF
:102EF00061726C696E0020536F6674776172652031
:102F000052657365740A00205761746368646F6763
:102F10002052657365740A002042726F776E206FCD
:102F200075742052657365740A0020457874657263
:102F30006E616C2052657365740A00506F7765721C
:102F400055700A006175746F25632E67004732382B
:102F50005859004D31303031006572726F722077F0
:102F6000726974696E6720746F2066696C650A0007
:102F7000446F6E6520736176696E672066696C6563
:102F80002E0A004D32390046696E73206465206355
:102F90007572736F002553202563202563202563F8
:102FA0002025630020503A0020583A00656E647373
:102FB000746F7073206869743A20006F70656E20BA
:102FC0006661696C65642C2046696C653A20002056
:102FD000453A0020593A0054656D70657261747508
:102FE00072610056656C2E2056656E746F696E684E
:102FF0006100426F63616C0056656C6F6369646168
:103000006465004D656E75207072696E63697061EC
:103010006C004578747275736F726120504C41007A
:103020005072652D61712E4D65736120504C4100C9
:103030005072652D61712E4D6573612041425300C0
:103040004578747275736F72612041425300457305
:103050006672696172005072652D61717565636594
:103060007220414253005072652D61717565636530
:103070007220504C410050617373696E686F205A22
:103080000056617AC3A36F007C3C3E5E2B3D3F2F10
:103090005B5D3B2C2A225C002053697A653A200054
:1030A00043616E6E6F74206F70656E20737562641D
:1030B0006972200053442063617264206F6B0A00C0
:1030C0006F70656E526F6F74206661696C65640A1B
:1030D00000766F6C756D652E696E69742066616926
:1030E0006C65640A00534420696E697420666169E6
:1030F0006C0A004D3234004D32332025730046698E
:103100006C652073656C65637465640A0046696C60
:1031100065206F70656E65643A2000454E4420530B
:103120005542524F5554494E450A002220706F7344
:10313000002220706172656E743A2200535542522B
:103140004F5554494E452043414C4C2074617267A1
:1031500065743A2200747279696E6720746F206317
:10316000616C6C207375622D67636F64652066699E
:103170006C6573207769746820746F6F206D616E61
:1031800079206C6576656C732E204D4158206C65F6
:1031900076656C2069733A310A0044656C65746920
:1031A0006F6E206661696C65642C2046696C653AB7
:1031B000200046696C652064656C657465643A003E
:1031C00057726974696E6720746F2066696C653A1E
:1031D0002000667265736800646F696E67004E6FE9
:1031E00077200052656375706572617220496D7059
:1031F00072657373C3A36F00313530004245443AA2
:103200005A6F6E6573746172202854726F6E78798C
:1032100020583341290052756E61776179205761DA
:103220007463683A204F4E0054656D70204DC3A101
:1032300078003237350054656D70204DC3AD6E0097
:1032400045313A205A6F6E6573746172202854724A
:103250006F6E7879205833412900505355004765E7
:103260006E657269630050726F746F636F6C6F008C
:10327000312E300054617861206465205472616E93
:10328000736D697373C3A36F003235303030300013
:1032900068747470733A2F2F7777772E616C696535
:1032A0007870726573732E636F6D2F6974656D2FFF
:1032B00033323936353430363339362E68746D6CE6
:1032C000005A4F4E4553544152205A5249425F567C
:1032D00036004E6976656C616D656E746F2042696B
:1032E0006C696E656172004578747275736F726196
:1032F0007300687474703A2F2F7777772E7A6F6E19
:10330000657374617233642E636F6D005A394D3387
:103310002D414700323032302D30372D30310032E0
:103320002E302E352E330056352E30005465726DFA
:103330006973746F72657300496E666F2E206461E5
:1033400020506C61636100496D70726573736F72B8
:1033500061004D3130303000506172617220696D12
:103360007072657373C3A36F00526573756D697274
:1033700020696D7072657373C3A36F00566F6C74B0
:1033800061720053746F70004D32310054726F637C
:10339000617220534400536F6272650054726F6310
:1033A00061722046696C616D656E746F0053656D66
:1033B0002063617274C3A36F20534400416A757324
:1033C00074617200496E666F726D61C3A7C3B565A3
:1033D00073005061726B696E672E2E2E00000045DF
:1033E00073706572616E646F206F00696E696369E6
:1033F0006F2064610074726F636120646520666988
:103400006C616D656E746F004573706572616E649A
:103410006F0072656D6FC3A7C3A36F2064652066DC
:10342000696C616D656E746F0000417175656365EF
:103430006E646F206F20626F63616C00416775611D
:103440007264652E2E2E00005072657373696F6E64
:1034500065206F20626F74C3A36F00702F206171AD
:103460007565636572206F20626F63616C00004355
:103470006F6C6F7175652066696C616D656E746FD8
:10348000007072657373696F6E65206F20626F7470
:10349000C3A36F007061726120636F6E74696E7593
:1034A00061722E2E2E004573706572616E646F001E
:1034B00066696C616D656E746F0000417065727451
:1034C00065206F20626F74C3A36F2070617261000A
:1034D000636F6E74696E75617220696D7072657369
:1034E00073C3A36F00004573706572616E646F20D3
:1034F000696D7072657373C3A36F00636F6E7469D7
:103500006E75617200004573706572652070656C40
:10351000610070757267612064652066696C616D19
:10352000656E746F000050617573617220696D7013
:1035300072657373C3A36F0043617274C3A36F207A
:1035400072656D6F7669646F0043617274C3A36FB7
:1035500020696E73657269646F00496D707265737E
:1035600073C3A36F2041626F7274616461004D3256
:1035700035002568753A2530326875002568756410
:103580002025303268753A253032687500202020B9
:1035900020202020001FE0201020102010102010DC
:1035A000202010201030300840048003001FE03F2E
:1035B000F03FF03FF01FE01FE03FF03FF03FF00F23
:1035C000C0078003003FFFF038007030FC3020FC63
:1035D000102078102030102C00D02E31D02F7BD02E
:1035E0002F7BD02E31D02C00D0203010207810200E
:1035F000FC1030FC303800703FFFF03FFFF0380027
:10360000703186302387102787902F87D02F03D0E3
:103610002030102078102078102030102F03D02F69
:1036200087D02787902387103186303800703FFF7E
:10363000F01FFFF81FFFF8041040020820020820C6
:103640000410400820801041001041000820800430
:1036500010400000001FFFF81FFFF83300CC00CC23
:103660001200480048120048004812004800481361
:10367000FFCFFFC810000000081FFF83FFF8000FF6
:10368000C7E000000FEFE0000003EF80000001EF53
:10369000000000006C00000000000000436F6D702F
:1036A000656E73617220536F6E646120656D205A80
:1036B00000436F6E6669672E204176616EC3A76115
:1036C0006461004445534341525245472E204649C8
:1036D0004C414D454E544F00434152524547415293
:1036E0002046494C414D454E544F0046494C414DB2
:1036F000454E54204348414E47450052657374611E
:1037000075726F2073656775726F004C6572204328
:103710006F6E666967757261C3A7C3A36F0053615B
:103720006C76617220436F6E666967757261C3A7BC
:10373000C3A36F00416A75737461722041425300E4
:10374000416A757374617220504C410053656E7309
:103750006F722066696C616D656E746F005265747E
:1037600072616972004D3630302042302054256934
:10377000004D37303120542569004D373032205408
:103780002569004465736361727265672E2046691E
:103790006C616D656E746F202A004D3730320044C5
:1037A0006573636172726567617220546F646F73D1
:1037B0000043617272656761722046696C616D6574
:1037C0006E746F202A0054726F6361722046696CB8
:1037D000616D656E746F202A00436F6E74696E753B
:1037E000617220496D7072657373C3A36F00507569
:1037F00072676172206D61697300436F6E666967FD
:103800002E206465205265746F6D61646100494DBE
:103810005052455353C3834F205041555341444167
:10382000002020426F63616C3A2000496D7072691C
:103830006D697220646F205344004D6F766572206D
:1038400025736D6D004D6F76657220302E316D6D74
:10385000004D6F76657220316D6D004D6F7665722B
:103860002031306D6D004D6F766572206569786F1F
:10387000004D6F766572204578747275736F7200B3
:103880004D6F766572205A004D6F76657220590033
:103890004D6F76657220580000002100240027003B
:1038A0002A002D003000330001010000040107014F
:1038B0000A0100002200250028002B002E00310004
:1038C000340002010000050108010B010000200086
:1038D0002300260029002C002F00320000010000E8
:1038E0000301060109010505050507050808080883
:1038F000020202020A0A0808040404040101010188
:103900000101010103030303030303030407070782
:103910000C0C0C0C0C0C0C0C020202020606060627
:10392000060606060B0B0B0B0B0B0B0B01021020F4
:1039300020080810204010204080020102010804E5
:103940000201010204081020408080402010080479
:1039500002018004020180402010080402010804D2
:103960000201010204081020408001020408102016
:10397000408000000A0B02090C0D0E080703040129
:103980000000000000000000000000000000000037
:103990000000000000000000000000000000121104
:1039A0001000000000000000000000000000000007
:1039B0000000000000000000205A3A200020593A80
:1039C000200042656420583A2000496D707265738A
:1039D00073C3A36F20506175736164610050726F8F
:1039E00062696E67204661696C65640A0046616CB5
:1039F000686120616F20736F6E64617200486F6D43
:103A00006520257325732573205072696D65697271
:103A10006F00496E736572742066696C616D656EC6
:103A20007420616E642070726573732062757474A3
:103A30006F6E0A0020573A005A394D332D41472006
:103A400070726F6E746F2E00496D7072696D696E61
:103A5000646F2E2E2E00220A00556E6B6E6F776EED
:103A600020636F6D6D616E643A202200202D204925
:103A70006E76616C69642065787472756465722015
:103A80006E756D62657220210A00455343415045B1
:103A90002054C389524D49434F00546865726D618B
:103AA0006C2052756E61776179004572726F3A547D
:103AB000656D70204DC3A178696D61004D4158540A
:103AC000454D502074726967676572656400457280
:103AD000726F3A54656D70204DC3AD6E696D6100B3
:103AE0004D494E54454D5020747269676765726543
:103AF00064004D383420582059205A204500202F8A
:103B0000002042403A0020403A001000C902E00084
:103B10002C01000122013001180170010E01B001D9
:103B20000401F001FA005002F000F002E6009003F8
:103B3000DC004004D2004005C8004006BE0000087A
:103B4000B400B009AA00D00BA000600E960060116E
:103B50008C000015820020197800C01D6E00A02284
:103B60006400B0275A00902C500000314600E03429
:103B70003C0010383200903A2800603C1E00A03D06
:103B80001400803E0A00203F00006F70656E0054F4
:103B900052494747455245440066696C616D656E00
:103BA00074007A5F70726F6265007A5F6D696E0093
:103BB000795F6D696E00785F6D696E005265706F38
:103BC0007274696E6720656E6473746F70207374AD
:103BD000617475730A00205200454550524F4D20C4
:103BE000496E697469616C697A65640A004861723A
:103BF00064636F6465642044656661756C7420530A
:103C0000657474696E6773204C6F616465640A0043
:103C10003B200020204D363033200020204D343111
:103C20003220530046696C616D656E742072756E4A
:103C30006F75742073656E736F723A00205500467D
:103C4000696C616D656E74206C6F61642F756E6C4C
:103C50006F6164206C656E677468733A0020204D54
:103C60003835312058005A2D50726F6265204F66EA
:103C7000667365740020204D323039205300417541
:103C8000746F2D526574726163743A20533D302015
:103C9000746F2064697361626C652C203120746FCD
:103CA00020696E7465727072657420452D6F6E6C3C
:103CB00079206D6F7665732061732072657472610F
:103CC00063742F7265636F7665720020204D323009
:103CD000382053005265636F7665723A20533C6C0E
:103CE000656E6774683E20463C756E6974732F6D0F
:103CF0003E0020570020204D3230372053005265BF
:103D000074726163743A20533C6C656E6774683EEC
:103D100020463C756E6974732F6D3E205A3C6C6969
:103D200066743E0020204D343133205300506F77AD
:103D300065722D4C6F7373205265636F766572796F
:103D40003A0020204D33303420500020204D3330B5
:103D5000312050005049442073657474696E677354
:103D60003A0020460020480020204D3134352053B1
:103D7000004D6174657269616C206865617475706D
:103D800020706172616D65746572733A002020471E
:103D90003239205720490020204D34323020530042
:103DA0004175746F20426564204C6576656C696E60
:103DB000673A0020204D323036205800486F6D653C
:103DC000206F66667365743A00204A0020204D32E9
:103DD0003035204200416476616E6365643A20426A
:103DE0003C6D696E5F7365676D656E745F74696D58
:103DF000655F75733E20533C6D696E5F66656564F3
:103E0000726174653E20543C6D696E5F74726176B8
:103E1000656C5F66656564726174653E204A3C6AE4
:103E2000756E635F6465763E0020540020204D323D
:103E30003034205000416363656C65726174696F52
:103E40006E2028756E6974732F7332293A20503CA6
:103E50007072696E745F616363656C3E20523C7280
:103E60006574726163745F616363656C3E20543C8A
:103E700074726176656C5F616363656C3E002020DF
:103E80004D3230312058004D6178696D756D20419B
:103E90006363656C65726174696F6E2028756E6905
:103EA00074732F7332293A0020204D32303320585A
:103EB000004D6178696D756D206665656472617429
:103EC00065732028756E6974732F73293A005374D3
:103ED0006570732070657220756E69743A002020D9
:103EE0004D3230302044300A0020204D3230302016
:103EF00044002044697361626C65640A0046696C21
:103F0000616D656E742073657474696E67733A00D1
:103F100020204D3134392043203B20556E69747385
:103F200020696E2043656C736975730A0020286DE3
:103F30006D29002020473231202020203B20556E63
:103F400069747320696E206D6D000000FA430000F3
:103F5000FA430000F0400000C8410000A042000009
:103F6000A042000016443333B542D0070000D0070A
:103F70000000640000008813000020423A00204343
:103F80006F756E7420413A00453100626564002C03
:103F90002073797374656D2073746F70706564211C
:103FA000204865617465725F49443A20002064547A
:103FB00065726D200020695465726D200020705478
:103FC00065726D2000204F757470757420003A2062
:103FD000496E7075742000205049445F4445425535
:103FE0004720004171756563696D656E746F206669
:103FF000616C686F750048656174696E6720666101
:10400000696C656400004361703A003F5A206F7527
:1040100074206F662072616E67652028003F59200A
:104020006F7574206F662072616E676520282D00A1
:104030003F58206F7574206F662072616E6765202F
:10404000282D0050726F6265204F6666736574207C
:104050005800656E7175657565696E672022000090
:10406000E9012F0111241FBECFEFD1E2DEBFCDBF8A
:1040700000E00CBF13E0A0E0B2E0E6E0FDEA02E001
:104080000BBF02C007900D92A038B107D9F727E106
:10409000A0E8B3E001C01D92A63CB207E1F710E230
:1040A000C1E3D0E200E006C021970109802FFE01A4
:1040B0000F944953C033D10780E00807A9F70F9444
:1040C000D73D0D9471560C9400002F923F924F9261
:1040D0005F926F927F928F929F92AF92BF92CF9298
:1040E000DF92EF92FF920F931F93CF93DF93CDB7A1
:1040F000DEB76F970FB6F894DEBF0FBECDBF8F8FC0
:10410000209156162E8FFF24F394F092561680912C
:10411000B7178D3409F406C4843511F40C946A324F
:10412000873411F00C948B328091B5179091B617AB
:104130008B31910509F45EC1CCF48430910509F40A
:1041400015C11CF4029788F1E9C38B30910509F47D
:104150004CC18531910511F40C948D320A9709F008
:10416000DDC381E00E94BA510C948D328A329105F0
:1041700009F4F4C254F48D31910509F465C10CF4CD
:1041800053C14E9709F474C1C9C38B35910509F425
:104190002FC28C35910509F430C28A35910509F09A
:1041A000BDC310928A030C948D328091360F8130FA
:1041B00011F00C948D3219821A821B821C82CE015E
:1041C00001965C0190E5E92E95E0F92E06E412E0F7
:1041D00026E6C22E21E1D22E912C88E5890D0E947F
:1041E0004E4CF50181935F01882311F10E94CE4B63
:1041F0002B013C01892D0E94285B882351F0F80196
:104200002081318142815381C301B2010F94525305
:1042100009C0F6012081318142815381C301B2017D
:104220000F945153F70160837183828393830AC093
:10423000F80180819181A281B381F701808391830C
:10424000A283B3839394F4E0EF0EF11C0C5F1F4F35
:1042500024E0C20ED11C33E09312BFCF85E40E944C
:104260004E4C8C83882301F10E94CE4B6B017C0164
:1042700083E00E94285B882371F0209152023091E4
:1042800053024091540250915502C701B6010F9458
:1042900052536B017C01C0925C05D0925D05E092A7
:1042A0005E05F0925F0510C080915202909153021A
:1042B000A0915402B091550280935C0590935D05E6
:1042C000A0935E05B0935F0580911117882381F05C
:1042D0008091391282FF0CC08C81882349F089813A
:1042E000811103C08A81882319F080E00E948B4CE1
:1042F00040E050E0BA0186E40E94AB3920E030E0B3
:10430000A9010F941955181684F40E94CE4B20E091
:1043100030E040E752E40F94DA5360936502709303
:10432000660280936702909368028091F01688235A
:1043300011F40C94C83285E40E94054C882311F4D2
:104340000C94C83288E50E94054C81110C94C83247
:1043500089E50E94054C81110C94C8328AE50E94BF
:10436000054C81110C94C8320C94963280E50E9461
:104370004E4C882329F00E94757A6B017C0103C0A2
:10438000C12CD12C760183E50E944E4C882361F02C
:104390000E94CE4B20E030E04AE754E40F94C24C38
:1043A0000F9453546B017C010E94829080917A1586
:1043B000811105C060E089E796E00E9454FE0F94E9
:1043C000F514C60ED71EE81EF91E0F94F514DC0175
:1043D000CB018C199D09AE09BF09B7FD02C00C9431
:1043E0008D3280E00E948D45F0CF80E00E94BA516E
:1043F0000C948D320F94431B81110C948D328CE000
:10440000EFE8F2E0DE01119601900D928A95E1F756
:1044100060E070E080E50E946862BE016F5F7F4FE0
:104420000E94CFF90C948D3280915416877087309A
:1044300011F00C94F33260E08FE40E94764C81110D
:104440000C948D320C94F3320F94431B81110C9415
:104450008D3280916905882311F40C94903360E0CB
:104460008FE40E94764C81110C948D320C94903321
:10447000209148163091491640914A1650914B169A
:1044800060914602709147028091480290914902E2
:104490000F945253AB01BC0188E50E94AB3969838C
:1044A0007A838B839C8320914C1630914D164091DA
:1044B0004E1650914F1660914A0270914B028091B6
:1044C0004C0290914D020F945253AB01BC0189E50F
:1044D0000E94AB396D837E838F839887BE016B5FAB
:1044E0007F4FCE0101960E94E749882311F40C9476
:1044F0008D3280E00E94EB540F94CD2961E085E479
:104500000E94764C21E0482FBE016B5F7F4FCE01A9
:1045100001960F94991B6B017C019B01AC010F94D8
:104520009F5581115FC089809A80AB80BC8020E05C
:1045300030E0A901C501B4010F945C4C87FF05C0B0
:1045400027E137EB41E558EB04C027E137EB41E5C4
:1045500058E3C501B4010F945253AB01BC0182EC86
:1045600099E30E9455458D809E80AF80B88420E0FD
:1045700030E0A901C501B4010F945C4C87FF05C070
:1045800027E137EB41E558EB04C027E137EB41E584
:1045900058E3C501B4010F945253AB01BC018DEB3C
:1045A00099E30E94554520E030E0A901C701B6011A
:1045B0000F945C4C87FF05C067E177EB81E598EBD2
:1045C00004C067E177EB81E598E3A70196010F94BA
:1045D0005253AB01BC0188EB99E30E9455458AE038
:1045E0000E940D430F94B4290F94512C0C948D32DA
:1045F0008FE080938A030C948D328091B4178823C6
:1046000049F1893009F0A6C0BBEAAB2EB2E0BB2E5F
:1046100016E4E12E12E0F12ED12C00E010E0F501BD
:1046200081915F010E944E4C882369F00E94CE4B1D
:10463000F7016083718382839383133011F401E067
:1046400002C0DD24D3941F5FF4E0EF0EF11C1430A0
:1046500031F775C0EBEA2E2EE2E03E2EF4E4EF2EA9
:10466000F5E0FF2E26E432E03D8F2C8FA6E6CA2E21
:10467000A1E1DA2E00E010E0F10181911F010E941A
:104680004E4C882309F44AC00E94CE4B2B013C01BA
:10469000133049F0F60120813181428153810F941A
:1046A00051532B013C01EC8DFD8D208131814281E4
:1046B0005381C301B2010F9451534B015C012DEBA7
:1046C00037E346E855EB0F94195587FD0AC02DEBEB
:1046D00037E346E855E3C501B4010F945C4C181666
:1046E000ECF4133051F44092520250925302609213
:1046F00054027092550201E011C0A5019401F70126
:1047000060817181828193810F945253F70160839C
:10471000718382839383812F0E9418961F5FF4E038
:10472000EF0EF11C2C8D3D8D2C5F3F4F3D8F2C8F5C
:1047300034E0C30ED11C143009F09ECF05C0DD203B
:1047400019F00F944F2C06C0002321F082E592E06F
:104750000E942F940F94512C0C948D328091360F1F
:10476000813011F00C948D3289E40E944E4CE82E79
:10477000882321F00E94CA4B082F01C000E08AE480
:104780000E944E4CF82E882321F00E94CA4B182F0D
:1047900001C010E0EE2011F0033020F4FF2041F0C2
:1047A000133030F085E896E00E9414430C948D326B
:1047B00080E1E6E4F2E0A0E5B5E001900D928A9593
:1047C000E1F7EE2019F1602F000F770B880B990BA2
:1047D0000F94634C2091E0163091E1164091E2165F
:1047E0005091E3160F94C24C2091E8043091E904F3
:1047F0004091EA045091EB040F945253609350059A
:10480000709351058093520590935305FF2019F141
:10481000612F110F770B880B990B0F94634C20912C
:10482000E4163091E5164091E6165091E7160F9484
:10483000C24C2091EC043091ED044091EE04509173
:10484000EF040F9452536093540570935505809371
:1048500056059093570560E080E50E94764C8823CA
:10486000C1F1EE20D1F020914816309149164091C7
:104870004A1650914B1660915005709151058091E8
:104880005205909153050F945153609350057093C6
:1048900051058093520590935305FF20D1F020914C
:1048A0004C1630914D1640914E1650914F16609116
:1048B00054057091550580915605909157050F94B8
:1048C000515360935405709355058093560590930A
:1048D000570540E050E0BA0186E40E94AB396B0115
:1048E0007C0120E030E0A9010F94195518164CF412
:1048F00020E030E040E752E4C701B6010F94DA53FC
:1049000003C060E070E0CB0169837A838B839C8372
:10491000CE0101960F94EC290C948D320F948F17D1
:104920000C948D320091B5171091B6170B39110503
:1049300009F4B6C50CF034C10235110509F4D8C527
:104940000CF0B3C00B31110509F430C30CF057C0A3
:104950000531110509F4B0C2ACF50131110509F4B6
:1049600097C234F40230110508F45AC20C9467322D
:104970000231110509F4CCC50431110511F00C9474
:10498000673285ED96E00E94144386E592E10E942D
:1049900012DE8BE1E6E5F2E1DE01119601900D9267
:1049A0008A95E1F760E070E0CE0101960E9409F17E
:1049B000CE0101960E94964D86EC96E00E9414432B
:1049C0000C948D320831110509F493C274F4063148
:1049D000110509F475C20731110511F00C94673205
:1049E000E091B217F091B31778C20931110509F4BB
:1049F000BBC20A31110509F4CBC20C9467320A32EA
:104A0000110509F412C4FCF40E31110509F429C38F
:104A100084F40C31110509F41CC30D31110511F09A
:104A20000C946732809139128E7F809339120C94E6
:104A30008D320F31110509F44DC30032110509F40F
:104A400020C30C9467320C34110509F40BC46CF4C8
:104A50000033110509F402C40B34110511F00C9454
:104A600067320E9478780C948D320D34110509F468
:104A7000FDC30135110511F00C9467320F94AA2380
:104A80000E94B1780E9493900E94A64260E085E95E
:104A900097E00E9454FE68EE73E080E090E00E9490
:104AA00026420E94CD420C948D320F36110509F436
:104AB0005DC4BCF50936110509F407C4CCF405350D
:104AC000110509F452C554F40335110509F418C54C
:104AD0000435110509F41CC50C9467320C35110519
:104AE00009F466C50836110509F4C4C30C9467328D
:104AF0000C36110509F47FC454F40A36110509F483
:104B0000F8C30B36110509F413C40C9467320D3643
:104B1000110509F4C5C30E36110509F414C40C942B
:104B200067320637110509F44DC6CCF4023711057A
:104B300009F4C8C554F40037110509F462C40137FB
:104B4000110509F46BC40C9467320337110509F49D
:104B5000C0C50537110509F425C60C94673209371D
:104B6000110509F46DC694F40737110509F465C6FB
:104B70000837110511F00C94673281E08093CD0C59
:104B80008093CC0C0F94352D0C948D320C3811057C
:104B900009F469C40139110509F459C60C94673246
:104BA000003981E0180711F40C94A0300CF08BC090
:104BB0000F3C110511F40C94ED2D0CF03FC0083C96
:104BC000110509F4F5C6E4F4063A110509F4EAC63C
:104BD00054F4033A110509F495C6043A110509F491
:104BE000CEC60C946732073A110509F4DEC60E3BB7
:104BF000110511F00C9467320E949E3F0C948D3287
:104C00000C3C110509F4BFC754F4093C110509F423
:104C100019C70B3C110509F497C70C9467320D3C7A
:104C2000110509F4B3C70E3C110511F00C9467325D
:104C300075EAE72E7DE0F72E10E0B6C7023E1105BB
:104C400011F40C94072FF4F4033D110511F40C94A6
:104C5000882E64F4003D110511F40C94312E013DB1
:104C6000110511F40C947B2E0C9467320C3D110548
:104C700011F40C948B2E0D3D110511F40C94B22EF1
:104C80000C9467320D32E1E01E0711F40C94AA2F48
:104C90006CF4023221E0120711F40C94532F0C3201
:104CA000114011F40C94952F0C9467320F3281E06F
:104CB000180711F40C949D300033114011F40C943A
:104CC0002A300C946732073FE1E01E0711F40C9480
:104CD00083310CF04EC0043A21E0120711F40C9419
:104CE000B93024F50A3981E0180709F493C38CF42C
:104CF0000139E1E01E0711F40C94A3300239114090
:104D000011F00C9467320E94857A0F94512C0C9408
:104D10008D320C3921E0120711F40C94A9300D39B1
:104D2000114011F40C9433320C946732043F81E04B
:104D3000180711F40C947D316CF4053AE1E01E077C
:104D400011F40C94BC300C3A114011F40C94203145
:104D50000C946732053F21E0120711F40C94803166
:104D6000063F114011F00C9467320F94602D0C94A3
:104D70008D320E3B82E0180711F40C941F321CF5A3
:104D80000835E2E01E0711F40C94A4316CF4083FDE
:104D900021E0120711F40C948B310C30124011F405
:104DA0000C949C310C9467320B3582E0180711F497
:104DB0000C94A7310D3B124011F00C9467320E9405
:104DC000655E0C948D32073EE3E01E0711F40C94EF
:104DD0002532CCF4033523E0120711F40C9422326F
:104DE000003A134011F00C9467322091B2173091C1
:104DF000B31790913912926090933912C9010E94B1
:104E0000D9EF0C948D32083E83E0180711F40C940E
:104E10004A32093E134011F40C944D320C9467321F
:104E200080E50E944E4C882329F00E94757A6B0120
:104E30007C0103C0C12CD12C760183E50E944E4C2D
:104E4000882361F00E94CE4B20E030E04AE754E432
:104E50000F94C24C0F9453546B017C010E948290BA
:104E60008091B2179091B317009721F061E00E94F2
:104E7000CAFE05C060E084EA96E00E9454FE40E06D
:104E8000C701B6010E9458490F94E0170C948D3267
:104E90008091B81784FF02C00C9493338091BA17A5
:104EA00087FF02C00C9493338091BB17837011F07D
:104EB0000C9493330C94B0330E9484ED0C948D3297
:104EC0000E94CFEC80913912877F809339120C9425
:104ED0008D32803209F41082319680818111F9CFB0
:104EE00060E08091B2179091B3170E9427F00C9464
:104EF0008D3283E50E944E4C882321F00E94964B10
:104F00000E946F4184E50E944E4C8823A9F00E94C4
:104F1000964B6B017C010E945D78C092E404D092B4
:104F2000E504E092E604F092E704CD28CE28CF28ED
:104F300019F081E0809383160E94A942882381F0B2
:104F40000E94E0EC0E94787883E39DE00E9485EC6B
:104F50001092BC171092BD171092BE171092BF1777
:104F60000F94E0170C948D328091391282FF03C0A8
:104F70008B7F8093391280911117882319F081E07B
:104F80000E948B4C0E949C780F94E0170C948D32F9
:104F90008091391283FD02C00C948D3283E50E940A
:104FA0004E4C81110C94BF330C948D3283E40E94DB
:104FB000054C882319F180EF96E00E9414438091FC
:104FC0009D13882391F0BE016F5F7F4F8AE993E1C3
:104FD0000E94DEDD8E010F5F1F4FF80181918F016E
:104FE000882339F00E940D43F8CF86EE96E00E94A8
:104FF00014438AE00E940D430C948D328091391243
:1050000082FF21C08FEF96E00E9414436091351219
:105010007091361280913712909138124AE00E94B6
:105020002C448FE20E940D43609131127091321234
:1050300080913312909134124AE00E942C440E94D5
:1050400066450C948D3281E197E00E9414430C94E4
:105050008D328091B2179091B3170E94D9EF0C94C2
:105060008D328091391283FD02C00C948D320F94E1
:1050700078178091B2179091B3170E941DEF0C948E
:105080008D328091391282FD0E9482908091391276
:1050900083FD02C00C948D3260E080E50E94764C66
:1050A000182F682F8091B2179091B3170E9427F0A4
:1050B00083E50E944E4C882321F00E94964B0E946B
:1050C0006F410E94E0EC11110C948D320E947878AF
:1050D0000C948D320E9429787B018C0120E831E507
:1050E00041E050E00F94B252C9016DE671E00F94B7
:1050F00021534B015C01C801B70120E13EE040E0D3
:1051000050E00F94B252CA01B90128E130E040E00A
:1051100050E00F94B252762E672EC62ED72E7CE327
:10512000272E312C412C512CC801B701A20191012D
:105130000F94B252F62EE72ECA01B901A2019101D5
:105140000F94B252CB018E010F5F1F4F8114910457
:1051500099F0EF92FF927F936F936F927F92BF923D
:10516000AF929F928F9282E297E09F938F931F93CB
:105170000F930F94F44B13C0A114B104B1F0EF924C
:10518000FF927F936F936F927F92BF92AF9286E26E
:1051900097E09F938F931F930F930F94F44B0FB649
:1051A000F894DEBF0FBECDBF30C0CD2879F0EF92AE
:1051B000FF927F936F936F927F928AE297E09F9323
:1051C0008F931F930F930F94F44BE9CF892B69F0C2
:1051D000EF92FF927F936F938EE297E09F938F936E
:1051E0001F930F930F94F44BDACFEF92FF9282E369
:1051F00097E09F938F931F930F930F94F44B0F900F
:105200000F900F900F900F900F9060E0C8010E94D8
:10521000CAFE0E944843B80186E397E00E943143EA
:105220008AE00E940D430C948D326DE070E080E5C1
:105230000E945B4C8C0197FF02C00C948D32E82ECB
:1052400060E089E40E94764C81110C94C433802F75
:105250000F94D63C8111F8C50C94C4330E94887A0F
:105260000C948D320E949C780C948D320E94B178FF
:105270000C948D328091660C83FF02C00C948D32A9
:1052800083E50E944E4C882311F40C948D320E94C9
:10529000CE4B0F944C54CB010F9438210C948D328B
:1052A0008091660C83FF02C00C948D3283E50E94CE
:1052B0004E4C182F81110C94013482E50E944E4C03
:1052C00081110C9401340C948D320E94FF5A182FD6
:1052D00087FD0AC088EE9AE00E941443812F0F9444
:1052E00048218AE00E940D438E8D809356160C94BF
:1052F000663560E080E50E946A4C81110C948D3225
:1053000081E40E94054C882321F06091FC0570E047
:1053100002C06FEF70E083E50E9468628F3F9105E5
:1053200019F010F08FEF90E08093FC050C948D3213
:1053300060E080E50E946A4C81110C948D321092DD
:10534000FC050C948D328EE40E944E4C882311F49F
:105350000C948D320E94964B60930F04709310044E
:1053600080931104909312040C948D3283E50E9473
:10537000054C882331F060E083E50E946A4C8093FD
:10538000660C0E94484389E797E00E94144380918D
:10539000660C882369F160EDE62E6AE0F62E00E0E7
:1053A00010E020E08091660C90E0A0E0B0E0002EDC
:1053B00004C0B695A795979587950A94D2F780FF74
:1053C0000EC0DD24D394D20E222319F08CE20E9469
:1053D0000D43F701859194910E9414432D2D0F5F89
:1053E0001F4F92E0E90EF11C05301105D9F601CEF0
:1053F00085E797E0FCCD10925516109269020C9447
:105400008D3241E060E070E080E897E00E944C431C
:105410000C948D320E9481420C948D3283E50E945F
:105420004E4C882381F00E94A64B282F30E02D336C
:10543000310524F4809300020C948D328CE3809328
:1054400000020C948D320E9448434091000250E0CB
:1054500060E070E08EE897E00E9499448AE00E9444
:105460000D430C948D328091660C83FF02C00C9426
:105470008D3283E50E944E4C882311F40C948D32BA
:105480000E94CE4B0F944C546C3871050CF48B0178
:105490001093AA160093A9160F94B01F0C948D3286
:1054A00083E50E944E4C882311F40C948D320E94A7
:1054B000A64B182F90E0CD970CF01CE310938503BA
:1054C0000F94F5146B017C01212F30E0A8EEB3E0BE
:1054D0000F940653C60ED71EE81EF91EC092810314
:1054E000D0928203E0928303F09284030C948D3275
:1054F00080918A038F7D806180938A030C948D3222
:1055000080918A038F7E806280938A030C948D320F
:1055100083E50E944E4C8823A1F00E94CE4B20E0F0
:1055200030E04AE754E40F94C24C0F945354609314
:1055300001027093020280930302909304020C9480
:105540008D328091B81784FF02C00C94433480914F
:10555000BA1787FF02C00C9443348091BB17837045
:1055600011F00C9443340C94743483E50E94054C80
:10557000882309F4D2C70F94F514609357167093DB
:1055800058168093591690935A160E94CE4B20E0DD
:1055900030E04AE754E40F94C24C0F9453546093A4
:1055A0008603709387038093880390938903B5C71C
:1055B0000E94FF5A87FDB1C79091B81794FD04C0AF
:1055C0009091BA1797FF0AC04BEAC42E42E0D42E3E
:1055D00057E6E52E5CE0F52E10E009C09091BB1770
:1055E000937091F7682F81E00E94C47996C7F60105
:1055F00081916F010E944E4C882309F459C01330E9
:1056000009F04FC00E94CE4B4B015C0120E030E01E
:1056100040EA51E40F945C4C87FF3AC0A501940125
:105620006091870C7091880C8091890C90918A0C04
:105630000F94DA532B013C019B01AC016091970C54
:105640007091980C8091990C90919A0C0F94C24C87
:105650006093970C7093980C8093990C90939A0C8C
:105660006091F0057091F1058091F2059091F3053C
:105670000F94614CA30192010F94C24C0F945354A8
:105680006093F0057093F1058093F2059093F30514
:105690008092870C9092880CA092890CB0928A0C10
:1056A00007C00E94CE4BF701648B758B868B978B5E
:1056B0001F5FF4E0EF0EF11C143009F098CF0E9448
:1056C0005E902BC70E9453CB8EEB91E10F941C3858
:1056D00024C78FEB98E00E94144360E08FEA98E0C3
:1056E0000F94FC3B60E08AE998E00F94FC3B61E09A
:1056F00089E99BE20F94FC3B61E08FE898E00F940E
:10570000FC3B61E08FE798E00F94FC3B60E086E7AC
:1057100098E00F94FC3B61E08CE698E00F94FC3B32
:1057200061E082E698E00F94FC3B61E08AE598E056
:105730000F94FC3B61E08CE498E00F94FC3B60E04C
:105740008EE398E00F94FC3B60E08FE298E00F94CA
:10575000FC3B60E081E298E00F94FC3B60E08BE072
:1057600098E00F94FC3B60E08AEF97E00F94FC3BDD
:1057700060E08BEE97E00F94FC3B60E086ED97E0F5
:105780000F94FC3B61E083EC97E00F94FC3B60E0FE
:1057900086EB97E00F94FC3B60E082EA97E00F9481
:1057A000FC3BBBC68091B2179091B317009709F4E8
:1057B000D7CBFC012081222309F4D2CB60E00E94E8
:1057C000CAFEABC60091B2171091B31794E0F12C4A
:1057D00040E0915029F1F8018081282F2B7F21345E
:1057E00021F421812133E1F408C08035C9F4F801A6
:1057F000818180538A3048F013C0813421F0853490
:1058000021F441E002C0FF24F39498012E5F3F4F42
:1058100089012F5F3F4FF80180818032C9F3D9CFD2
:1058200041110E944843FF2021F084E899E00E9442
:105830001443C8010E946C4570C60F94022D6DC6BA
:105840001092CD0C1092CC0C0F94352D66C660E0F2
:1058500070E083E50E945B4C8C011127023011053A
:105860003CF00E94444388E899E00E94144355C6E6
:1058700088E40E944E4C8823A9F00E94CA4B8A3AC1
:1058800091053CF08530F1E09F072CF084E091E039
:1058900002C08AEA90E0F801EE0FFF1FE85EF84EC2
:1058A0009183808386E40E944E4C882381F00E947D
:1058B000CA4B97FD07C08F3F910529F024F08FEF69
:1058C00090E001C080E0F801EE5EF84E808382E453
:1058D0000E944E4C882309F420C60E94CA4B853092
:1058E000910534F08D3891052CF08CE890E002C0E1
:1058F00085E090E0F801EE0FFF1FEC5EF84E91831B
:1059000080830BC660E070E083E50E945B4C7C0105
:1059100003970CF002C660E070E080E50E945B4CEB
:10592000BC01990F880B990B0F94634C20E030E079
:1059300040E251E40F94DA534B015C0187011127D7
:1059400020E030E0A9010F94195518161CF0812CA5
:10595000912C5401F801EE0FFF1FEE0FFF1FE053D3
:10596000F34F80829182A282B38232E0E316F10487
:1059700009F0D3C5809143060E945D51CEC56FEFFB
:105980007FEF83E50E945B4C97FD07C08031910556
:105990000CF0C3C50E945D51C0C5809143060E94B2
:1059A0005D51BBC50E943463B8C50E947B62B5C51A
:1059B0000E94FF5A182F87FDB0C584E40E94054C51
:1059C0008823E9F10E94CE4B6B017C0101E020E0CD
:1059D00030E0A9010F945C4C811101C000E00093FC
:1059E000600520E030E0A901C701B6010F945C4CCE
:1059F000882329F184E01802F0011124EB59FA4FB1
:105A0000C082D182E282F38220E030E0A90160917D
:105A100065057091660580916705909168050F9402
:105A20005C4C81110CC080E090E0A0EEBFE380935D
:105A3000650590936605A0936705B09368050E947D
:105A4000098E6BC50E94FF5A87FD67C5BBEA8B2E86
:105A5000B2E09B2E17E6A12E1CE0B12E712CF401B2
:105A600081914F010E94054C882309F465C00E9472
:105A7000CE4B7B018C0180E1EBE9F2E0DE01119677
:105A800001900D928A95E1F7872DF3E0F71508F460
:105A900083E0C82ED12C2DEC3CEC4CEC5DE3B7013F
:105AA000C8010F945C4C87FF02C00C945835F60176
:105AB000EE0FFF1FEE0FFF1F21E030E02C0F3D1F08
:105AC000E20FF31F3080418052806380232D342DFC
:105AD000452D562DB701C8010F941955181614F409
